14:35:33.741448 IP 101.5.99.181.59033 > 166.111.8.120.http: Flags [S], seq 2950484413, win 14600, options [mss 1460,sackOK,TS val 4222040 ecr 0,nop,wscale 7], length 0
	0x0000:  001a a916 15b1 6067 20ac 73f4 0800 4500  ......`g..s...E.
	0x0010:  003c bde5 4000 4006 0535 6505 63b5 a66f  .<..@.@..5e.c..o
	0x0020:  0878 e699 0050 afdc d1bd 0000 0000 a002  .x...P..........
	0x0030:  3908 c239 0000 0204 05b4 0402 080a 0040  9..9...........@
	0x0040:  6c58 0000 0000 0103 0307                 lX........
14:35:33.742410 IP 101.5.99.181.59033 > 166.111.8.120.http: Flags [.], ack 104903247, win 115, options [nop,nop,TS val 4222041 ecr 4124183253], length 0
	0x0000:  001a a916 15b1 6067 20ac 73f4 0800 4500  ......`g..s...E.
	0x0010:  0034 bde6 4000 4006 053c 6505 63b5 a66f  .4..@.@..<e.c..o
	0x0020:  0878 e699 0050 afdc d1be 0640 b24f 8010  .x...P.....@.O..
	0x0030:  0073 7052 0000 0101 080a 0040 6c59 f5d2  .spR.......@lY..
	0x0040:  0ad5                                     ..
14:35:33.742493 IP 101.5.99.181.59033 > 166.111.8.120.http: Flags [P.], seq 0:139, ack 1, win 115, options [nop,nop,TS val 4222041 ecr 4124183253], length 139
	0x0000:  001a a916 15b1 6067 20ac 73f4 0800 4500  ......`g..s...E.
	0x0010:  00bf bde7 4000 4006 04b0 6505 63b5 a66f  ....@.@...e.c..o
	0x0020:  0878 e699 0050 afdc d1be 0640 b24f 8018  .x...P.....@.O..
	0x0030:  0073 ca93 0000 0101 080a 0040 6c59 f5d2  .s.........@lY..
	0x0040:  0ad5 4745 5420 2f63 6769 2d62 696e 2f64  ..GET./cgi-bin/d
	0x0050:  6f5f 6c6f 676f 7574 2048 5454 502f 312e  o_logout.HTTP/1.
	0x0060:  310d 0a41 6363 6570 742d 456e 636f 6469  1..Accept-Encodi
	0x0070:  6e67 3a20 6964 656e 7469 7479 0d0a 486f  ng:.identity..Ho
	0x0080:  7374 3a20 6e65 742e 7473 696e 6768 7561  st:.net.tsinghua
	0x0090:  2e65 6475 2e63 6e0d 0a43 6f6e 6e65 6374  .edu.cn..Connect
	0x00a0:  696f 6e3a 2063 6c6f 7365 0d0a 5573 6572  ion:.close..User
	0x00b0:  2d41 6765 6e74 3a20 5079 7468 6f6e 2d75  -Agent:.Python-u
	0x00c0:  726c 6c69 622f 322e 370d 0a0d 0a         rllib/2.7....
14:35:33.747672 IP 101.5.99.181.59033 > 166.111.8.120.http: Flags [.], ack 250, win 123, options [nop,nop,TS val 4222046 ecr 4124183258], length 0
	0x0000:  001a a916 15b1 6067 20ac 73f4 0800 4500  ......`g..s...E.
	0x0010:  0034 bde8 4000 4006 053a 6505 63b5 a66f  .4..@.@..:e.c..o
	0x0020:  0878 e699 0050 afdc d249 0640 b348 8010  .x...P...I.@.H..
	0x0030:  007b 6ebc 0000 0101 080a 0040 6c5e f5d2  .{n........@l^..
	0x0040:  0ada                                     ..
14:35:33.747770 IP 101.5.99.181.59033 > 166.111.8.120.http: Flags [.], ack 255, win 123, options [nop,nop,TS val 4222046 ecr 4124183258], length 0
	0x0000:  001a a916 15b1 6067 20ac 73f4 0800 4500  ......`g..s...E.
	0x0010:  0034 bde9 4000 4006 0539 6505 63b5 a66f  .4..@.@..9e.c..o
	0x0020:  0878 e699 0050 afdc d249 0640 b34d 8010  .x...P...I.@.M..
	0x0030:  007b 6eb7 0000 0101 080a 0040 6c5e f5d2  .{n........@l^..
	0x0040:  0ada                                     ..
14:35:33.748017 IP 101.5.99.181.59033 > 166.111.8.120.http: Flags [F.], seq 139, ack 256, win 123, options [nop,nop,TS val 4222046 ecr 4124183258], length 0
	0x0000:  001a a916 15b1 6067 20ac 73f4 0800 4500  ......`g..s...E.
	0x0010:  0034 bdea 4000 4006 0538 6505 63b5 a66f  .4..@.@..8e.c..o
	0x0020:  0878 e699 0050 afdc d249 0640 b34e 8011  .x...P...I.@.N..
	0x0030:  007b 6eb5 0000 0101 080a 0040 6c5e f5d2  .{n........@l^..
	0x0040:  0ada                                     ..
14:35:44.347759 IP 101.5.99.181.59034 > 166.111.8.120.http: Flags [S], seq 2182333096, win 14600, options [mss 1460,sackOK,TS val 4232646 ecr 0,nop,wscale 7], length 0
	0x0000:  001a a916 15b1 6067 20ac 73f4 0800 4500  ......`g..s...E.
	0x0010:  003c 576e 4000 4006 6bac 6505 63b5 a66f  .<Wn@.@.k.e.c..o
	0x0020:  0878 e69a 0050 8213 c2a8 0000 0000 a002  .x...P..........
	0x0030:  3908 d5a8 0000 0204 05b4 0402 080a 0040  9..............@
	0x0040:  95c6 0000 0000 0103 0307                 ..........
14:35:44.348588 IP 101.5.99.181.59034 > 166.111.8.120.http: Flags [.], ack 273238961, win 115, options [nop,nop,TS val 4232647 ecr 4124193859], length 0
	0x0000:  001a a916 15b1 6067 20ac 73f4 0800 4500  ......`g..s...E.
	0x0010:  0034 576f 4000 4006 6bb3 6505 63b5 a66f  .4Wo@.@.k.e.c..o
	0x0020:  0878 e69a 0050 8213 c2a9 1049 4bb1 8010  .x...P.....IK...
	0x0030:  0073 b6e8 0000 0101 080a 0040 95c7 f5d2  .s.........@....
	0x0040:  3443                                     4C
14:35:44.348759 IP 101.5.99.181.59034 > 166.111.8.120.http: Flags [P.], seq 0:284, ack 1, win 115, options [nop,nop,TS val 4232647 ecr 4124193859], length 284
	0x0000:  001a a916 15b1 6067 20ac 73f4 0800 4500  ......`g..s...E.
	0x0010:  0150 5770 4000 4006 6a96 6505 63b5 a66f  .PWp@.@.j.e.c..o
	0x0020:  0878 e69a 0050 8213 c2a9 1049 4bb1 8018  .x...P.....IK...
	0x0030:  0073 a627 0000 0101 080a 0040 95c7 f5d2  .s.'.......@....
	0x0040:  3443 504f 5354 202f 6367 692d 6269 6e2f  4CPOST./cgi-bin/
	0x0050:  646f 5f6c 6f67 696e 2048 5454 502f 312e  do_login.HTTP/1.
	0x0060:  310d 0a41 6363 6570 742d 456e 636f 6469  1..Accept-Encodi
	0x0070:  6e67 3a20 6964 656e 7469 7479 0d0a 436f  ng:.identity..Co
	0x0080:  6e74 656e 742d 4c65 6e67 7468 3a20 3736  ntent-Length:.76
	0x0090:  0d0a 486f 7374 3a20 6e65 742e 7473 696e  ..Host:.net.tsin
	0x00a0:  6768 7561 2e65 6475 2e63 6e0d 0a43 6f6e  ghua.edu.cn..Con
	0x00b0:  7465 6e74 2d54 7970 653a 2061 7070 6c69  tent-Type:.appli
	0x00c0:  6361 7469 6f6e 2f78 2d77 7777 2d66 6f72  cation/x-www-for
	0x00d0:  6d2d 7572 6c65 6e63 6f64 6564 0d0a 436f  m-urlencoded..Co
	0x00e0:  6e6e 6563 7469 6f6e 3a20 636c 6f73 650d  nnection:.close.
	0x00f0:  0a55 7365 722d 4167 656e 743a 2050 7974  .User-Agent:.Pyt
	0x0100:  686f 6e2d 7572 6c6c 6962 2f32 2e37 0d0a  hon-urllib/2.7..
	0x0110:  0d0a 7573 6572 6e61 6d65 3d64 7066 3133  ..username=dpf13
	0x0120:  2664 726f 703d 3026 7061 7373 776f 7264  &drop=0&password
	0x0130:  3d32 6566 6264 3365 3233 3263 3963 6262  =2efbd3e232c9cbb
	0x0140:  3362 3661 3532 3765 3337 3738 3539 6264  3b6a527e377859bd
	0x0150:  6126 7479 7065 3d31 266e 3d31 3030       a&type=1&n=100
14:35:44.385119 IP 101.5.99.181.59034 > 166.111.8.120.http: Flags [.], ack 255, win 123, options [nop,nop,TS val 4232683 ecr 4124193895], length 0
	0x0000:  001a a916 15b1 6067 20ac 73f4 0800 4500  ......`g..s...E.
	0x0010:  0034 5771 4000 4006 6bb1 6505 63b5 a66f  .4Wq@.@.k.e.c..o
	0x0020:  0878 e69a 0050 8213 c3c5 1049 4caf 8010  .x...P.....IL...
	0x0030:  007b b47e 0000 0101 080a 0040 95eb f5d2  .{.~.......@....
	0x0040:  3467                                     4g
14:35:44.385289 IP 101.5.99.181.59034 > 166.111.8.120.http: Flags [.], ack 260, win 123, options [nop,nop,TS val 4232684 ecr 4124193895], length 0
	0x0000:  001a a916 15b1 6067 20ac 73f4 0800 4500  ......`g..s...E.
	0x0010:  0034 5772 4000 4006 6bb0 6505 63b5 a66f  .4Wr@.@.k.e.c..o
	0x0020:  0878 e69a 0050 8213 c3c5 1049 4cb4 8010  .x...P.....IL...
	0x0030:  007b b478 0000 0101 080a 0040 95ec f5d2  .{.x.......@....
	0x0040:  3467                                     4g
14:35:44.385904 IP 101.5.99.181.59034 > 166.111.8.120.http: Flags [F.], seq 284, ack 261, win 123, options [nop,nop,TS val 4232684 ecr 4124193895], length 0
	0x0000:  001a a916 15b1 6067 20ac 73f4 0800 4500  ......`g..s...E.
	0x0010:  0034 5773 4000 4006 6baf 6505 63b5 a66f  .4Ws@.@.k.e.c..o
	0x0020:  0878 e69a 0050 8213 c3c5 1049 4cb5 8011  .x...P.....IL...
	0x0030:  007b b476 0000 0101 080a 0040 95ec f5d2  .{.v.......@....
	0x0040:  3467                                     4g
14:35:52.045914 IP 101.5.99.181.59035 > 166.111.8.120.http: Flags [S], seq 3657839906, win 14600, options [mss 1460,sackOK,TS val 4240344 ecr 0,nop,wscale 7], length 0
	0x0000:  001a a916 15b1 6067 20ac 73f4 0800 4500  ......`g..s...E.
	0x0010:  003c 86fa 4000 4006 3c20 6505 63b5 a66f  .<..@.@.<.e.c..o
	0x0020:  0878 e69b 0050 da06 3522 0000 0000 a002  .x...P..5"......
	0x0030:  3908 ed28 0000 0204 05b4 0402 080a 0040  9..(...........@
	0x0040:  b3d8 0000 0000 0103 0307                 ..........
14:35:52.047889 IP 101.5.99.181.59035 > 166.111.8.120.http: Flags [.], ack 412992712, win 115, options [nop,nop,TS val 4240346 ecr 4124201558], length 0
	0x0000:  001a a916 15b1 6067 20ac 73f4 0800 4500  ......`g..s...E.
	0x0010:  0034 86fb 4000 4006 3c27 6505 63b5 a66f  .4..@.@.<'e.c..o
	0x0020:  0878 e69b 0050 da06 3523 189d c4c8 8010  .x...P..5#......
	0x0030:  0073 2ee9 0000 0101 080a 0040 b3da f5d2  .s.........@....
	0x0040:  5256                                     RV
14:35:52.048002 IP 101.5.99.181.59035 > 166.111.8.120.http: Flags [P.], seq 0:284, ack 1, win 115, options [nop,nop,TS val 4240346 ecr 4124201558], length 284
	0x0000:  001a a916 15b1 6067 20ac 73f4 0800 4500  ......`g..s...E.
	0x0010:  0150 86fc 4000 4006 3b0a 6505 63b5 a66f  .P..@.@.;.e.c..o
	0x0020:  0878 e69b 0050 da06 3523 189d c4c8 8018  .x...P..5#......
	0x0030:  0073 1e28 0000 0101 080a 0040 b3da f5d2  .s.(.......@....
	0x0040:  5256 504f 5354 202f 6367 692d 6269 6e2f  RVPOST./cgi-bin/
	0x0050:  646f 5f6c 6f67 696e 2048 5454 502f 312e  do_login.HTTP/1.
	0x0060:  310d 0a41 6363 6570 742d 456e 636f 6469  1..Accept-Encodi
	0x0070:  6e67 3a20 6964 656e 7469 7479 0d0a 436f  ng:.identity..Co
	0x0080:  6e74 656e 742d 4c65 6e67 7468 3a20 3736  ntent-Length:.76
	0x0090:  0d0a 486f 7374 3a20 6e65 742e 7473 696e  ..Host:.net.tsin
	0x00a0:  6768 7561 2e65 6475 2e63 6e0d 0a43 6f6e  ghua.edu.cn..Con
	0x00b0:  7465 6e74 2d54 7970 653a 2061 7070 6c69  tent-Type:.appli
	0x00c0:  6361 7469 6f6e 2f78 2d77 7777 2d66 6f72  cation/x-www-for
	0x00d0:  6d2d 7572 6c65 6e63 6f64 6564 0d0a 436f  m-urlencoded..Co
	0x00e0:  6e6e 6563 7469 6f6e 3a20 636c 6f73 650d  nnection:.close.
	0x00f0:  0a55 7365 722d 4167 656e 743a 2050 7974  .User-Agent:.Pyt
	0x0100:  686f 6e2d 7572 6c6c 6962 2f32 2e37 0d0a  hon-urllib/2.7..
	0x0110:  0d0a 7573 6572 6e61 6d65 3d64 7066 3133  ..username=dpf13
	0x0120:  2664 726f 703d 3026 7061 7373 776f 7264  &drop=0&password
	0x0130:  3d32 6566 6264 3365 3233 3263 3963 6262  =2efbd3e232c9cbb
	0x0140:  3362 3661 3532 3765 3337 3738 3539 6264  3b6a527e377859bd
	0x0150:  6126 7479 7065 3d31 266e 3d31 3030       a&type=1&n=100
14:35:52.085641 IP 101.5.99.181.59035 > 166.111.8.120.http: Flags [.], ack 255, win 123, options [nop,nop,TS val 4240384 ecr 4124201595], length 0
	0x0000:  001a a916 15b1 6067 20ac 73f4 0800 4500  ......`g..s...E.
	0x0010:  0034 86fd 4000 4006 3c25 6505 63b5 a66f  .4..@.@.<%e.c..o
	0x0020:  0878 e69b 0050 da06 363f 189d c5c6 8010  .x...P..6?......
	0x0030:  007b 2c7c 0000 0101 080a 0040 b400 f5d2  .{,|.......@....
	0x0040:  527b                                     R{
14:35:52.085791 IP 101.5.99.181.59035 > 166.111.8.120.http: Flags [.], ack 260, win 123, options [nop,nop,TS val 4240384 ecr 4124201595], length 0
	0x0000:  001a a916 15b1 6067 20ac 73f4 0800 4500  ......`g..s...E.
	0x0010:  0034 86fe 4000 4006 3c24 6505 63b5 a66f  .4..@.@.<$e.c..o
	0x0020:  0878 e69b 0050 da06 363f 189d c5cb 8010  .x...P..6?......
	0x0030:  007b 2c77 0000 0101 080a 0040 b400 f5d2  .{,w.......@....
	0x0040:  527b                                     R{
14:35:52.086175 IP 101.5.99.181.59035 > 166.111.8.120.http: Flags [F.], seq 284, ack 261, win 123, options [nop,nop,TS val 4240384 ecr 4124201595], length 0
	0x0000:  001a a916 15b1 6067 20ac 73f4 0800 4500  ......`g..s...E.
	0x0010:  0034 86ff 4000 4006 3c23 6505 63b5 a66f  .4..@.@.<#e.c..o
	0x0020:  0878 e69b 0050 da06 363f 189d c5cc 8011  .x...P..6?......
	0x0030:  007b 2c75 0000 0101 080a 0040 b400 f5d2  .{,u.......@....
	0x0040:  527b                                     R{
14:40:49.999263 IP 101.5.99.181.49056 > 166.111.8.120.dec-notes: Flags [S], seq 1812283040, win 14600, options [mss 1460,sackOK,TS val 4538297 ecr 0,nop,wscale 7], length 0
	0x0000:  001a a916 15b1 6067 20ac 73f4 0800 4500  ......`g..s...E.
	0x0010:  003c 0119 4000 4006 c201 6505 63b5 a66f  .<..@.@...e.c..o
	0x0020:  0878 bfa0 0d05 6c05 3ea0 0000 0000 a002  .x....l.>.......
	0x0030:  3908 e00c 0000 0204 05b4 0402 080a 0045  9..............E
	0x0040:  3fb9 0000 0000 0103 0307                 ?.........
14:40:50.002303 IP 101.5.99.181.49056 > 166.111.8.120.dec-notes: Flags [.], ack 776236829, win 115, options [nop,nop,TS val 4538301 ecr 4124499492], length 0
	0x0000:  001a a916 15b1 6067 20ac 73f4 0800 4500  ......`g..s...E.
	0x0010:  0034 011a 4000 4006 c208 6505 63b5 a66f  .4..@.@...e.c..o
	0x0020:  0878 bfa0 0d05 6c05 3ea1 2e44 6f1d 8010  .x....l.>..Do...
	0x0030:  0073 d5fc 0000 0101 080a 0045 3fbd f5d6  .s.........E?...
	0x0040:  de24                                     .$
14:40:50.002397 IP 101.5.99.181.49056 > 166.111.8.120.dec-notes: Flags [P.], seq 0:285, ack 1, win 115, options [nop,nop,TS val 4538301 ecr 4124499492], length 285
	0x0000:  001a a916 15b1 6067 20ac 73f4 0800 4500  ......`g..s...E.
	0x0010:  0151 011b 4000 4006 c0ea 6505 63b5 a66f  .Q..@.@...e.c..o
	0x0020:  0878 bfa0 0d05 6c05 3ea1 2e44 6f1d 8018  .x....l.>..Do...
	0x0030:  0073 5068 0000 0101 080a 0045 3fbd f5d6  .sPh.......E?...
	0x0040:  de24 504f 5354 202f 6367 692d 6269 6e2f  .$POST./cgi-bin/
	0x0050:  646f 5f6c 6f67 696e 2048 5454 502f 312e  do_login.HTTP/1.
	0x0060:  310d 0a48 6f73 743a 2031 3636 2e31 3131  1..Host:.166.111
	0x0070:  2e38 2e31 3230 0d0a 5265 6665 7265 723a  .8.120..Referer:
	0x0080:  0d0a 436f 6e6e 6563 742d 7479 7065 3a61  ..Connect-type:a
	0x0090:  7070 6c69 6361 7469 6f6e 2f78 2d77 7777  pplication/x-www
	0x00a0:  2d66 6f72 6d2d 7572 6c65 6e63 6f64 6564  -form-urlencoded
	0x00b0:  0d0a 436f 6e74 656e 742d 6c65 6e67 7468  ..Content-length
	0x00c0:  3a31 3239 0d0a 436f 6e6e 6563 7469 6f6e  :129..Connection
	0x00d0:  3a20 436c 6f73 650d 0a0d 0a75 7365 726e  :.Close....usern
	0x00e0:  616d 653d 6470 6631 3326 7061 7373 776f  ame=dpf13&passwo
	0x00f0:  7264 3d25 3361 6867 4337 6868 4437 6363  rd=%3ahgC7hhD7cc
	0x0100:  3836 6363 2533 6326 6472 6f70 3d30 2674  86cc%3c&drop=0&t
	0x0110:  7970 653d 3226 6e3d 3130 3026 6d61 633d  ype=2&n=100&mac=
	0x0120:  2533 6363 6325 3365 2534 3063 6325 3363  %3ccc%3e%40cc%3c
	0x0130:  2533 6463 6325 3430 3763 6338 2534 3063  %3dcc%407cc8%40c
	0x0140:  6825 3366 3968 6325 3430 2533 6463 6339  h%3f9hc%40%3dcc9
	0x0150:  2533 6663 6825 3361 2533 6163 0d0a 00    %3fch%3a%3ac...
14:40:50.083790 IP 101.5.99.181.49056 > 166.111.8.120.dec-notes: Flags [.], ack 294, win 123, options [nop,nop,TS val 4538382 ecr 4124499573], length 0
	0x0000:  001a a916 15b1 6067 20ac 73f4 0800 4500  ......`g..s...E.
	0x0010:  0034 011c 4000 4006 c206 6505 63b5 a66f  .4..@.@...e.c..o
	0x0020:  0878 bfa0 0d05 6c05 3fbe 2e44 7042 8010  .x....l.?..DpB..
	0x0030:  007b d310 0000 0101 080a 0045 400e f5d6  .{.........E@...
	0x0040:  de75                                     .u
14:40:50.083893 IP 101.5.99.181.49056 > 166.111.8.120.dec-notes: Flags [.], ack 299, win 123, options [nop,nop,TS val 4538382 ecr 4124499573], length 0
	0x0000:  001a a916 15b1 6067 20ac 73f4 0800 4500  ......`g..s...E.
	0x0010:  0034 011d 4000 4006 c205 6505 63b5 a66f  .4..@.@...e.c..o
	0x0020:  0878 bfa0 0d05 6c05 3fbe 2e44 7047 8010  .x....l.?..DpG..
	0x0030:  007b d30b 0000 0101 080a 0045 400e f5d6  .{.........E@...
	0x0040:  de75                                     .u
14:40:50.083976 IP 101.5.99.181.49056 > 166.111.8.120.dec-notes: Flags [F.], seq 285, ack 300, win 123, options [nop,nop,TS val 4538382 ecr 4124499573], length 0
	0x0000:  001a a916 15b1 6067 20ac 73f4 0800 4500  ......`g..s...E.
	0x0010:  0034 011e 4000 4006 c204 6505 63b5 a66f  .4..@.@...e.c..o
	0x0020:  0878 bfa0 0d05 6c05 3fbe 2e44 7048 8011  .x....l.?..DpH..
	0x0030:  007b d309 0000 0101 080a 0045 400e f5d6  .{.........E@...
	0x0040:  de75                                     .u
14:41:50.100393 IP 101.5.99.181.34177 > 166.111.8.120.directv-soft: UDP, length 8
	0x0000:  001a a916 15b1 6067 20ac 73f4 0800 4500  ......`g..s...E.
	0x0010:  0024 0000 4000 4011 c327 6505 63b5 a66f  .$..@.@..'e.c..o
	0x0020:  0878 8581 0d07 0010 7430 527e 0000 2df5  .x......t0R~..-.
	0x0030:  0100                                     ..
14:41:50.102384 IP 101.5.99.181 > 166.111.8.120: ICMP 101.5.99.181 udp port 34177 unreachable, length 84
	0x0000:  001a a916 15b1 6067 20ac 73f4 0800 45c0  ......`g..s...E.
	0x0010:  0068 90e6 0000 4001 714d 6505 63b5 a66f  .h....@.qMe.c..o
	0x0020:  0878 0303 74e8 0000 0000 4500 004c 0000  .x..t.....E..L..
	0x0030:  4000 3a11 c8ff a66f 0878 6505 63b5 0d07  @.:....o.xe.c...
	0x0040:  8581 0038 73e0 527e 0000 2df5 0100 0000  ...8s.R~..-.....
	0x0050:  0000 0000 0000 0000 0000 0000 0000 0000  ................
	0x0060:  0000 0000 0000 0000 0000 0000 0000 0000  ................
	0x0070:  0000 0000 0000                           ......
14:42:50.115688 IP 101.5.99.181.35244 > 166.111.8.120.directv-soft: UDP, length 8
	0x0000:  001a a916 15b1 6067 20ac 73f4 0800 4500  ......`g..s...E.
	0x0010:  0024 0000 4000 4011 c327 6505 63b5 a66f  .$..@.@..'e.c..o
	0x0020:  0878 89ac 0d07 0010 7005 527e 0000 2df5  .x......p.R~..-.
	0x0030:  0100                                     ..
14:42:50.117979 IP 101.5.99.181 > 166.111.8.120: ICMP 101.5.99.181 udp port 35244 unreachable, length 84
	0x0000:  001a a916 15b1 6067 20ac 73f4 0800 45c0  ......`g..s...E.
	0x0010:  0068 90e7 0000 4001 714c 6505 63b5 a66f  .h....@.qLe.c..o
	0x0020:  0878 0303 74e8 0000 0000 4500 004c 0000  .x..t.....E..L..
	0x0030:  4000 3a11 c8ff a66f 0878 6505 63b5 0d07  @.:....o.xe.c...
	0x0040:  89ac 0038 1bb4 527e 0000 2df5 0100 0000  ...8..R~..-.....
	0x0050:  0000 0000 0000 9000 0000 0000 0000 c400  ................
	0x0060:  0000 0000 0000 0000 0000 0000 0000 0000  ................
	0x0070:  0000 0000 0000                           ......
14:43:50.130457 IP 101.5.99.181.41677 > 166.111.8.120.directv-soft: UDP, length 8
	0x0000:  001a a916 15b1 6067 20ac 73f4 0800 4500  ......`g..s...E.
	0x0010:  0024 0000 4000 4011 c327 6505 63b5 a66f  .$..@.@..'e.c..o
	0x0020:  0878 a2cd 0d07 0010 56e4 527e 0000 2df5  .x......V.R~..-.
	0x0030:  0100                                     ..
14:43:50.133188 IP 101.5.99.181 > 166.111.8.120: ICMP 101.5.99.181 udp port 41677 unreachable, length 84
	0x0000:  001a a916 15b1 6067 20ac 73f4 0800 45c0  ......`g..s...E.
	0x0010:  0068 90e8 0000 4001 714b 6505 63b5 a66f  .h....@.qKe.c..o
	0x0020:  0878 0303 74e8 0000 0000 4500 004c 0000  .x..t.....E..L..
	0x0030:  4000 3a11 c8ff a66f 0878 6505 63b5 0d07  @.:....o.xe.c...
	0x0040:  a2cd 0038 2b1c 527e 0000 2df5 0100 0000  ...8+.R~..-.....
	0x0050:  0000 0000 0000 ba29 0000 0000 0000 714e  .......)......qN
	0x0060:  0000 0000 0000 0000 0000 0000 0000 0000  ................
	0x0070:  0000 0000 0000                           ......
14:44:50.145474 IP 101.5.99.181.33777 > 166.111.8.120.directv-soft: UDP, length 8
	0x0000:  001a a916 15b1 6067 20ac 73f4 0800 4500  ......`g..s...E.
	0x0010:  0024 0000 4000 4011 c327 6505 63b5 a66f  .$..@.@..'e.c..o
	0x0020:  0878 83f1 0d07 0010 75c0 527e 0000 2df5  .x......u.R~..-.
	0x0030:  0100                                     ..
14:44:50.148939 IP 101.5.99.181 > 166.111.8.120: ICMP 101.5.99.181 udp port 33777 unreachable, length 84
	0x0000:  001a a916 15b1 6067 20ac 73f4 0800 45c0  ......`g..s...E.
	0x0010:  0068 90e9 0000 4001 714a 6505 63b5 a66f  .h....@.qJe.c..o
	0x0020:  0878 0303 74e8 0000 0000 4500 004c 0000  .x..t.....E..L..
	0x0030:  4000 3a11 c8ff a66f 0878 6505 63b5 0d07  @.:....o.xe.c...
	0x0040:  83f1 0038 c481 527e 0000 2df5 0100 0000  ...8..R~..-.....
	0x0050:  0000 0000 0000 861f 0100 0000 0000 29cf  ..............).
	0x0060:  0000 0000 0000 0000 0000 0000 0000 0000  ................
	0x0070:  0000 0000 0000                           ......
14:45:50.160100 IP 101.5.99.181.60273 > 166.111.8.120.directv-soft: UDP, length 8
	0x0000:  001a a916 15b1 6067 20ac 73f4 0800 4500  ......`g..s...E.
	0x0010:  0024 0000 4000 4011 c327 6505 63b5 a66f  .$..@.@..'e.c..o
	0x0020:  0878 eb71 0d07 0010 0e40 527e 0000 2df5  .x.q.....@R~..-.
	0x0030:  0100                                     ..
14:45:50.162819 IP 101.5.99.181 > 166.111.8.120: ICMP 101.5.99.181 udp port 60273 unreachable, length 84
	0x0000:  001a a916 15b1 6067 20ac 73f4 0800 45c0  ......`g..s...E.
	0x0010:  0068 90ea 0000 4001 7149 6505 63b5 a66f  .h....@.qIe.c..o
	0x0020:  0878 0303 74e8 0000 0000 4500 004c 0000  .x..t.....E..L..
	0x0030:  4000 3a11 c8ff a66f 0878 6505 63b5 0d07  @.:....o.xe.c...
	0x0040:  eb71 0038 fbd8 527e 0000 2df5 0100 0000  .q.8..R~..-.....
	0x0050:  0000 0000 0000 aab8 0500 0000 0000 605e  ..............`^
	0x0060:  0200 0000 0000 0000 0000 0000 0000 0000  ................
	0x0070:  0000 0000 0000                           ......
14:46:50.174909 IP 101.5.99.181.35329 > 166.111.8.120.directv-soft: UDP, length 8
	0x0000:  001a a916 15b1 6067 20ac 73f4 0800 4500  ......`g..s...E.
	0x0010:  0024 0000 4000 4011 c327 6505 63b5 a66f  .$..@.@..'e.c..o
	0x0020:  0878 8a01 0d07 0010 6fb0 527e 0000 2df5  .x......o.R~..-.
	0x0030:  0100                                     ..
14:46:50.177395 IP 101.5.99.181 > 166.111.8.120: ICMP 101.5.99.181 udp port 35329 unreachable, length 84
	0x0000:  001a a916 15b1 6067 20ac 73f4 0800 45c0  ......`g..s...E.
	0x0010:  0068 90eb 0000 4001 7148 6505 63b5 a66f  .h....@.qHe.c..o
	0x0020:  0878 0303 74e8 0000 0000 4500 004c 0000  .x..t.....E..L..
	0x0030:  4000 3a11 c8ff a66f 0878 6505 63b5 0d07  @.:....o.xe.c...
	0x0040:  8a01 0038 60c1 527e 0000 2df5 0100 0000  ...8`.R~..-.....
	0x0050:  0000 0000 0000 e28d 0b00 0000 0000 1d11  ................
	0x0060:  0400 0000 0000 0000 0000 0000 0000 0000  ................
	0x0070:  0000 0000 0000                           ......
14:47:50.189063 IP 101.5.99.181.55000 > 166.111.8.120.directv-soft: UDP, length 8
	0x0000:  001a a916 15b1 6067 20ac 73f4 0800 4500  ......`g..s...E.
	0x0010:  0024 0000 4000 4011 c327 6505 63b5 a66f  .$..@.@..'e.c..o
	0x0020:  0878 d6d8 0d07 0010 22d9 527e 0000 2df5  .x......".R~..-.
	0x0030:  0100                                     ..
14:47:50.191698 IP 101.5.99.181 > 166.111.8.120: ICMP 101.5.99.181 udp port 55000 unreachable, length 84
	0x0000:  001a a916 15b1 6067 20ac 73f4 0800 45c0  ......`g..s...E.
	0x0010:  0068 90ec 0000 4001 7147 6505 63b5 a66f  .h....@.qGe.c..o
	0x0020:  0878 0303 74e8 0000 0000 4500 004c 0000  .x..t.....E..L..
	0x0030:  4000 3a11 c8ff a66f 0878 6505 63b5 0d07  @.:....o.xe.c...
	0x0040:  d6d8 0038 5475 527e 0000 2df5 0100 0000  ...8TuR~..-.....
	0x0050:  0000 0000 0000 1a27 0f00 0000 0000 a0ec  .......'........
	0x0060:  0400 0000 0000 0000 0000 0000 0000 0000  ................
	0x0070:  0000 0000 0000                           ......
14:48:50.202981 IP 101.5.99.181.36530 > 166.111.8.120.directv-soft: UDP, length 8
	0x0000:  001a a916 15b1 6067 20ac 73f4 0800 4500  ......`g..s...E.
	0x0010:  0024 0000 4000 4011 c327 6505 63b5 a66f  .$..@.@..'e.c..o
	0x0020:  0878 8eb2 0d07 0010 6aff 527e 0000 2df5  .x......j.R~..-.
	0x0030:  0100                                     ..
14:48:50.206330 IP 101.5.99.181 > 166.111.8.120: ICMP 101.5.99.181 udp port 36530 unreachable, length 84
	0x0000:  001a a916 15b1 6067 20ac 73f4 0800 45c0  ......`g..s...E.
	0x0010:  0068 90ed 0000 4001 7146 6505 63b5 a66f  .h....@.qFe.c..o
	0x0020:  0878 0303 74e8 0000 0000 4500 004c 0000  .x..t.....E..L..
	0x0030:  4000 3a11 c8ff a66f 0878 6505 63b5 0d07  @.:....o.xe.c...
	0x0040:  8eb2 0038 11d2 527e 0000 2df5 0100 0000  ...8..R~..-.....
	0x0050:  0000 0000 0000 88fd 1000 0000 0000 badf  ................
	0x0060:  0500 0000 0000 0000 0000 0000 0000 0000  ................
	0x0070:  0000 0000 0000                           ......
14:49:50.217608 IP 101.5.99.181.51124 > 166.111.8.120.directv-soft: UDP, length 8
	0x0000:  001a a916 15b1 6067 20ac 73f4 0800 4500  ......`g..s...E.
	0x0010:  0024 0000 4000 4011 c327 6505 63b5 a66f  .$..@.@..'e.c..o
	0x0020:  0878 c7b4 0d07 0010 31fd 527e 0000 2df5  .x......1.R~..-.
	0x0030:  0100                                     ..
14:49:50.220313 IP 101.5.99.181 > 166.111.8.120: ICMP 101.5.99.181 udp port 51124 unreachable, length 84
	0x0000:  001a a916 15b1 6067 20ac 73f4 0800 45c0  ......`g..s...E.
	0x0010:  0068 90ee 0000 4001 7145 6505 63b5 a66f  .h....@.qEe.c..o
	0x0020:  0878 0303 74e8 0000 0000 4500 004c 0000  .x..t.....E..L..
	0x0030:  4000 3a11 c8ff a66f 0878 6505 63b5 0d07  @.:....o.xe.c...
	0x0040:  c7b4 0038 d6ca 527e 0000 2df5 0100 0000  ...8..R~..-.....
	0x0050:  0000 0000 0000 903e 1200 0000 0000 b2a3  .......>........
	0x0060:  0600 0000 0000 0000 0000 0000 0000 0000  ................
	0x0070:  0000 0000 0000                           ......
14:50:50.233134 IP 101.5.99.181.57855 > 166.111.8.120.directv-soft: UDP, length 8
	0x0000:  001a a916 15b1 6067 20ac 73f4 0800 4500  ......`g..s...E.
	0x0010:  0024 0000 4000 4011 c327 6505 63b5 a66f  .$..@.@..'e.c..o
	0x0020:  0878 e1ff 0d07 0010 17b2 527e 0000 2df5  .x........R~..-.
	0x0030:  0100                                     ..
14:50:50.236063 IP 101.5.99.181 > 166.111.8.120: ICMP 101.5.99.181 udp port 57855 unreachable, length 84
	0x0000:  001a a916 15b1 6067 20ac 73f4 0800 45c0  ......`g..s...E.
	0x0010:  0068 90ef 0000 4001 7144 6505 63b5 a66f  .h....@.qDe.c..o
	0x0020:  0878 0303 74e8 0000 0000 4500 004c 0000  .x..t.....E..L..
	0x0030:  4000 3a11 c8ff a66f 0878 6505 63b5 0d07  @.:....o.xe.c...
	0x0040:  e1ff 0038 95a6 527e 0000 2df5 0100 0000  ...8..R~..-.....
	0x0050:  0000 0000 0000 adda 1500 0000 0000 b7e0  ................
	0x0060:  0700 0000 0000 0000 0000 0000 0000 0000  ................
	0x0070:  0000 0000 0000                           ......
14:51:50.248837 IP 101.5.99.181.35365 > 166.111.8.120.directv-soft: UDP, length 8
	0x0000:  001a a916 15b1 6067 20ac 73f4 0800 4500  ......`g..s...E.
	0x0010:  0024 0000 4000 4011 c327 6505 63b5 a66f  .$..@.@..'e.c..o
	0x0020:  0878 8a25 0d07 0010 6f8c 527e 0000 2df5  .x.%....o.R~..-.
	0x0030:  0100                                     ..
14:51:50.251014 IP 101.5.99.181 > 166.111.8.120: ICMP 101.5.99.181 udp port 35365 unreachable, length 84
	0x0000:  001a a916 15b1 6067 20ac 73f4 0800 45c0  ......`g..s...E.
	0x0010:  0068 90f0 0000 4001 7143 6505 63b5 a66f  .h....@.qCe.c..o
	0x0020:  0878 0303 74e8 0000 0000 4500 004c 0000  .x..t.....E..L..
	0x0030:  4000 3a11 c8ff a66f 0878 6505 63b5 0d07  @.:....o.xe.c...
	0x0040:  8a25 0038 0d99 527e 0000 2df5 0100 0000  .%.8..R~..-.....
	0x0050:  0000 0000 0000 e7d2 1700 0000 0000 5ad0  ..............Z.
	0x0060:  0800 0000 0000 0000 0000 0000 0000 0000  ................
	0x0070:  0000 0000 0000                           ......
14:52:50.263362 IP 101.5.99.181.58354 > 166.111.8.120.directv-soft: UDP, length 8
	0x0000:  001a a916 15b1 6067 20ac 73f4 0800 4500  ......`g..s...E.
	0x0010:  0024 0000 4000 4011 c327 6505 63b5 a66f  .$..@.@..'e.c..o
	0x0020:  0878 e3f2 0d07 0010 15bf 527e 0000 2df5  .x........R~..-.
	0x0030:  0100                                     ..
14:52:50.265771 IP 101.5.99.181 > 166.111.8.120: ICMP 101.5.99.181 udp port 58354 unreachable, length 84
	0x0000:  001a a916 15b1 6067 20ac 73f4 0800 45c0  ......`g..s...E.
	0x0010:  0068 90f1 0000 4001 7142 6505 63b5 a66f  .h....@.qBe.c..o
	0x0020:  0878 0303 74e8 0000 0000 4500 004c 0000  .x..t.....E..L..
	0x0030:  4000 3a11 c8ff a66f 0878 6505 63b5 0d07  @.:....o.xe.c...
	0x0040:  e3f2 0038 469f 527e 0000 2df5 0100 0000  ...8F.R~..-.....
	0x0050:  0000 0000 0000 06e6 1700 0000 0000 a8e9  ................
	0x0060:  0800 0000 0000 0000 0000 0000 0000 0000  ................
	0x0070:  0000 0000 0000                           ......
14:53:50.278438 IP 101.5.99.181.33709 > 166.111.8.120.directv-soft: UDP, length 8
	0x0000:  001a a916 15b1 6067 20ac 73f4 0800 4500  ......`g..s...E.
	0x0010:  0024 0000 4000 4011 c327 6505 63b5 a66f  .$..@.@..'e.c..o
	0x0020:  0878 83ad 0d07 0010 7604 527e 0000 2df5  .x......v.R~..-.
	0x0030:  0100                                     ..
14:53:50.280650 IP 101.5.99.181 > 166.111.8.120: ICMP 101.5.99.181 udp port 33709 unreachable, length 84
	0x0000:  001a a916 15b1 6067 20ac 73f4 0800 45c0  ......`g..s...E.
	0x0010:  0068 90f2 0000 4001 7141 6505 63b5 a66f  .h....@.qAe.c..o
	0x0020:  0878 0303 74e8 0000 0000 4500 004c 0000  .x..t.....E..L..
	0x0030:  4000 3a11 c8ff a66f 0878 6505 63b5 0d07  @.:....o.xe.c...
	0x0040:  83ad 0038 9883 527e 0000 2df5 0100 0000  ...8..R~..-.....
	0x0050:  0000 0000 0000 24f0 1c00 0000 0000 9240  ......$........@
	0x0060:  0a00 0000 0000 0000 0000 0000 0000 0000  ................
	0x0070:  0000 0000 0000                           ......
14:54:50.292409 IP 101.5.99.181.36028 > 166.111.8.120.directv-soft: UDP, length 8
	0x0000:  001a a916 15b1 6067 20ac 73f4 0800 4500  ......`g..s...E.
	0x0010:  0024 0000 4000 4011 c327 6505 63b5 a66f  .$..@.@..'e.c..o
	0x0020:  0878 8cbc 0d07 0010 6cf5 527e 0000 2df5  .x......l.R~..-.
	0x0030:  0100                                     ..
14:54:50.294934 IP 101.5.99.181 > 166.111.8.120: ICMP 101.5.99.181 udp port 36028 unreachable, length 84
	0x0000:  001a a916 15b1 6067 20ac 73f4 0800 45c0  ......`g..s...E.
	0x0010:  0068 90f3 0000 4001 7140 6505 63b5 a66f  .h....@.q@e.c..o
	0x0020:  0878 0303 74e8 0000 0000 4500 004c 0000  .x..t.....E..L..
	0x0030:  4000 3a11 c8ff a66f 0878 6505 63b5 0d07  @.:....o.xe.c...
	0x0040:  8cbc 0038 bd7c 527e 0000 2df5 0100 0000  ...8.|R~..-.....
	0x0050:  0000 0000 0000 5665 1e00 0000 0000 30c3  ......Ve......0.
	0x0060:  0a00 0000 0000 0000 0000 0000 0000 0000  ................
	0x0070:  0000 0000 0000                           ......
14:55:50.307863 IP 101.5.99.181.37538 > 166.111.8.120.directv-soft: UDP, length 8
	0x0000:  001a a916 15b1 6067 20ac 73f4 0800 4500  ......`g..s...E.
	0x0010:  0024 0000 4000 4011 c327 6505 63b5 a66f  .$..@.@..'e.c..o
	0x0020:  0878 92a2 0d07 0010 670f 527e 0000 2df5  .x......g.R~..-.
	0x0030:  0100                                     ..
14:55:50.312747 IP 101.5.99.181 > 166.111.8.120: ICMP 101.5.99.181 udp port 37538 unreachable, length 84
	0x0000:  001a a916 15b1 6067 20ac 73f4 0800 45c0  ......`g..s...E.
	0x0010:  0068 90f4 0000 4001 713f 6505 63b5 a66f  .h....@.q?e.c..o
	0x0020:  0878 0303 74e8 0000 0000 4500 004c 0000  .x..t.....E..L..
	0x0030:  4000 3a11 c8ff a66f 0878 6505 63b5 0d07  @.:....o.xe.c...
	0x0040:  92a2 0038 6c72 527e 0000 2df5 0100 0000  ...8lrR~..-.....
	0x0050:  0000 0000 0000 9579 1e00 0000 0000 3cd3  .......y......<.
	0x0060:  0a00 0000 0000 0000 0000 0000 0000 0000  ................
	0x0070:  0000 0000 0000                           ......
14:56:50.321843 IP 101.5.99.181.53100 > 166.111.8.120.directv-soft: UDP, length 8
	0x0000:  001a a916 15b1 6067 20ac 73f4 0800 4500  ......`g..s...E.
	0x0010:  0024 0000 4000 4011 c327 6505 63b5 a66f  .$..@.@..'e.c..o
	0x0020:  0878 cf6c 0d07 0010 2a45 527e 0000 2df5  .x.l....*ER~..-.
	0x0030:  0100                                     ..
14:56:50.324434 IP 101.5.99.181 > 166.111.8.120: ICMP 101.5.99.181 udp port 53100 unreachable, length 84
	0x0000:  001a a916 15b1 6067 20ac 73f4 0800 45c0  ......`g..s...E.
	0x0010:  0068 90f5 0000 4001 713e 6505 63b5 a66f  .h....@.q>e.c..o
	0x0020:  0878 0303 74e8 0000 0000 4500 004c 0000  .x..t.....E..L..
	0x0030:  4000 3a11 c8ff a66f 0878 6505 63b5 0d07  @.:....o.xe.c...
	0x0040:  cf6c 0038 e9db 527e 0000 2df5 0100 0000  .l.8..R~..-.....
	0x0050:  0000 0000 0000 142c 2100 0000 0000 ffec  .......,!.......
	0x0060:  0b00 0000 0000 0000 0000 0000 0000 0000  ................
	0x0070:  0000 0000 0000                           ......
14:57:50.336185 IP 101.5.99.181.38595 > 166.111.8.120.directv-soft: UDP, length 8
	0x0000:  001a a916 15b1 6067 20ac 73f4 0800 4500  ......`g..s...E.
	0x0010:  0024 0000 4000 4011 c327 6505 63b5 a66f  .$..@.@..'e.c..o
	0x0020:  0878 96c3 0d07 0010 62ee 527e 0000 2df5  .x......b.R~..-.
	0x0030:  0100                                     ..
14:57:50.338268 IP 101.5.99.181 > 166.111.8.120: ICMP 101.5.99.181 udp port 38595 unreachable, length 84
	0x0000:  001a a916 15b1 6067 20ac 73f4 0800 45c0  ......`g..s...E.
	0x0010:  0068 90f6 0000 4001 713d 6505 63b5 a66f  .h....@.q=e.c..o
	0x0020:  0878 0303 74e8 0000 0000 4500 004c 0000  .x..t.....E..L..
	0x0030:  4000 3a11 c8ff a66f 0878 6505 63b5 0d07  @.:....o.xe.c...
	0x0040:  96c3 0038 795f 527e 0000 2df5 0100 0000  ...8y_R~..-.....
	0x0050:  0000 0000 0000 5b42 2100 0000 0000 61fc  ......[B!.....a.
	0x0060:  0b00 0000 0000 0000 0000 0000 0000 0000  ................
	0x0070:  0000 0000 0000                           ......
14:58:50.351407 IP 101.5.99.181.52182 > 166.111.8.120.directv-soft: UDP, length 8
	0x0000:  001a a916 15b1 6067 20ac 73f4 0800 4500  ......`g..s...E.
	0x0010:  0024 0000 4000 4011 c327 6505 63b5 a66f  .$..@.@..'e.c..o
	0x0020:  0878 cbd6 0d07 0010 2ddb 527e 0000 2df5  .x......-.R~..-.
	0x0030:  0100                                     ..
14:58:50.353046 IP 101.5.99.181 > 166.111.8.120: ICMP 101.5.99.181 udp port 52182 unreachable, length 84
	0x0000:  001a a916 15b1 6067 20ac 73f4 0800 45c0  ......`g..s...E.
	0x0010:  0068 90f7 0000 4001 713c 6505 63b5 a66f  .h....@.q<e.c..o
	0x0020:  0878 0303 74e8 0000 0000 4500 004c 0000  .x..t.....E..L..
	0x0030:  4000 3a11 c8ff a66f 0878 6505 63b5 0d07  @.:....o.xe.c...
	0x0040:  cbd6 0038 66ec 527e 0000 2df5 0100 0000  ...8f.R~..-.....
	0x0050:  0000 0000 0000 875a 2300 0000 0000 0f44  .......Z#......D
	0x0060:  0d00 0000 0000 0000 0000 0000 0000 0000  ................
	0x0070:  0000 0000 0000                           ......
14:59:50.366470 IP 101.5.99.181.36983 > 166.111.8.120.directv-soft: UDP, length 8
	0x0000:  001a a916 15b1 6067 20ac 73f4 0800 4500  ......`g..s...E.
	0x0010:  0024 0000 4000 4011 c327 6505 63b5 a66f  .$..@.@..'e.c..o
	0x0020:  0878 9077 0d07 0010 693a 527e 0000 2df5  .x.w....i:R~..-.
	0x0030:  0100                                     ..
14:59:50.368998 IP 101.5.99.181 > 166.111.8.120: ICMP 101.5.99.181 udp port 36983 unreachable, length 84
	0x0000:  001a a916 15b1 6067 20ac 73f4 0800 45c0  ......`g..s...E.
	0x0010:  0068 90f8 0000 4001 713b 6505 63b5 a66f  .h....@.q;e.c..o
	0x0020:  0878 0303 74e8 0000 0000 4500 004c 0000  .x..t.....E..L..
	0x0030:  4000 3a11 c8ff a66f 0878 6505 63b5 0d07  @.:....o.xe.c...
	0x0040:  9077 0038 b2bd 527e 0000 2df5 0100 0000  .w.8..R~..-.....
	0x0050:  0000 0000 0000 5ca2 2300 0000 0000 298a  ......\.#.....).
	0x0060:  0d00 0000 0000 0000 0000 0000 0000 0000  ................
	0x0070:  0000 0000 0000                           ......
15:00:15.820189 IP 101.5.99.181.49246 > 166.111.8.120.dec-notes: Flags [S], seq 3785587090, win 14600, options [mss 1460,sackOK,TS val 5704118 ecr 0,nop,wscale 7], length 0
	0x0000:  001a a916 15b1 6067 20ac 73f4 0800 4500  ......`g..s...E.
	0x0010:  003c 7024 4000 4006 52f6 6505 63b5 a66f  .<p$@.@.R.e.c..o
	0x0020:  0878 c05e 0d05 e1a3 7992 0000 0000 a002  .x.^....y.......
	0x0030:  3908 64af 0000 0204 05b4 0402 080a 0057  9.d............W
	0x0040:  09b6 0000 0000 0103 0307                 ..........
15:00:15.822552 IP 101.5.99.181.49246 > 166.111.8.120.dec-notes: Flags [.], ack 1866007270, win 115, options [nop,nop,TS val 5704121 ecr 4125665239], length 0
	0x0000:  001a a916 15b1 6067 20ac 73f4 0800 4500  ......`g..s...E.
	0x0010:  0034 7025 4000 4006 52fd 6505 63b5 a66f  .4p%@.@.R.e.c..o
	0x0020:  0878 c05e 0d05 e1a3 7993 6f39 02e6 8010  .x.^....y.o9....
	0x0030:  0073 bc1d 0000 0101 080a 0057 09b9 f5e8  .s.........W....
	0x0040:  a7d7                                     ..
15:00:15.822705 IP 101.5.99.181.49246 > 166.111.8.120.dec-notes: Flags [P.], seq 0:175, ack 1, win 115, options [nop,nop,TS val 5704121 ecr 4125665239], length 175
	0x0000:  001a a916 15b1 6067 20ac 73f4 0800 4500  ......`g..s...E.
	0x0010:  00e3 7026 4000 4006 524d 6505 63b5 a66f  ..p&@.@.RMe.c..o
	0x0020:  0878 c05e 0d05 e1a3 7993 6f39 02e6 8018  .x.^....y.o9....
	0x0030:  0073 aea5 0000 0101 080a 0057 09b9 f5e8  .s.........W....
	0x0040:  a7d7 504f 5354 202f 6367 692d 6269 6e2f  ..POST./cgi-bin/
	0x0050:  646f 5f6c 6f67 6f75 7420 4854 5450 2f31  do_logout.HTTP/1
	0x0060:  2e31 0d0a 486f 7374 3a20 3136 362e 3131  .1..Host:.166.11
	0x0070:  312e 382e 3132 300d 0a52 6566 6572 6572  1.8.120..Referer
	0x0080:  3a0d 0a43 6f6e 6e65 6374 2d74 7970 653a  :..Connect-type:
	0x0090:  6170 706c 6963 6174 696f 6e2f 782d 7777  application/x-ww
	0x00a0:  772d 666f 726d 2d75 726c 656e 636f 6465  w-form-urlencode
	0x00b0:  640d 0a43 6f6e 7465 6e74 2d6c 656e 6774  d..Content-lengt
	0x00c0:  683a 3139 0d0a 436f 6e6e 6563 7469 6f6e  h:19..Connection
	0x00d0:  3a20 436c 6f73 650d 0a0d 0a75 6964 3d35  :.Close....uid=5
	0x00e0:  3531 3034 3835 3939 3037 3634 3334 0d0a  51048599076434..
	0x00f0:  00                                       .
15:00:15.848356 IP 101.5.99.181.49246 > 166.111.8.120.dec-notes: Flags [.], ack 250, win 123, options [nop,nop,TS val 5704147 ecr 4125665264], length 0
	0x0000:  001a a916 15b1 6067 20ac 73f4 0800 4500  ......`g..s...E.
	0x0010:  0034 7027 4000 4006 52fb 6505 63b5 a66f  .4p'@.@.R.e.c..o
	0x0020:  0878 c05e 0d05 e1a3 7a42 6f39 03df 8010  .x.^....zBo9....
	0x0030:  007b ba3a 0000 0101 080a 0057 09d3 f5e8  .{.:.......W....
	0x0040:  a7f0                                     ..
15:00:15.848521 IP 101.5.99.181.49246 > 166.111.8.120.dec-notes: Flags [.], ack 255, win 123, options [nop,nop,TS val 5704147 ecr 4125665264], length 0
	0x0000:  001a a916 15b1 6067 20ac 73f4 0800 4500  ......`g..s...E.
	0x0010:  0034 7028 4000 4006 52fa 6505 63b5 a66f  .4p(@.@.R.e.c..o
	0x0020:  0878 c05e 0d05 e1a3 7a42 6f39 03e4 8010  .x.^....zBo9....
	0x0030:  007b ba35 0000 0101 080a 0057 09d3 f5e8  .{.5.......W....
	0x0040:  a7f0                                     ..
15:00:15.848648 IP 101.5.99.181.49246 > 166.111.8.120.dec-notes: Flags [F.], seq 175, ack 256, win 123, options [nop,nop,TS val 5704147 ecr 4125665264], length 0
	0x0000:  001a a916 15b1 6067 20ac 73f4 0800 4500  ......`g..s...E.
	0x0010:  0034 7029 4000 4006 52f9 6505 63b5 a66f  .4p)@.@.R.e.c..o
	0x0020:  0878 c05e 0d05 e1a3 7a42 6f39 03e5 8011  .x.^....zBo9....
	0x0030:  007b ba33 0000 0101 080a 0057 09d3 f5e8  .{.3.......W....
	0x0040:  a7f0                                     ..
15:02:02.903411 IP 101.5.99.181.49247 > 166.111.8.120.dec-notes: Flags [S], seq 1730569264, win 14600, options [mss 1460,sackOK,TS val 5811202 ecr 0,nop,wscale 7], length 0
	0x0000:  001a a916 15b1 6067 20ac 73f4 0800 4500  ......`g..s...E.
	0x0010:  003c c832 4000 4006 fae7 6505 63b5 a66f  .<.2@.@...e.c..o
	0x0020:  0878 c05f 0d05 6726 6430 0000 0000 a002  .x._..g&d0......
	0x0030:  3908 5240 0000 0204 05b4 0402 080a 0058  9.R@...........X
	0x0040:  ac02 0000 0000 0103 0307                 ..........
15:02:02.910934 IP 101.5.99.181.49247 > 166.111.8.120.dec-notes: Flags [.], ack 3554876955, win 115, options [nop,nop,TS val 5811209 ecr 4125772318], length 0
	0x0000:  001a a916 15b1 6067 20ac 73f4 0800 4500  ......`g..s...E.
	0x0010:  0034 c833 4000 4006 faee 6505 63b5 a66f  .4.3@.@...e.c..o
	0x0020:  0878 c05f 0d05 6726 6431 d3e3 1e1b 8010  .x._..g&d1......
	0x0030:  0073 8782 0000 0101 080a 0058 ac09 f5ea  .s.........X....
	0x0040:  4a1e                                     J.
15:02:02.911180 IP 101.5.99.181.49247 > 166.111.8.120.dec-notes: Flags [P.], seq 0:269, ack 1, win 115, options [nop,nop,TS val 5811209 ecr 4125772318], length 269
	0x0000:  001a a916 15b1 6067 20ac 73f4 0800 4500  ......`g..s...E.
	0x0010:  0141 c834 4000 4006 f9e0 6505 63b5 a66f  .A.4@.@...e.c..o
	0x0020:  0878 c05f 0d05 6726 6431 d3e3 1e1b 8018  .x._..g&d1......
	0x0030:  0073 cd60 0000 0101 080a 0058 ac09 f5ea  .s.`.......X....
	0x0040:  4a1e 504f 5354 202f 6367 692d 6269 6e2f  J.POST./cgi-bin/
	0x0050:  646f 5f6c 6f67 696e 2048 5454 502f 312e  do_login.HTTP/1.
	0x0060:  310d 0a48 6f73 743a 2031 3636 2e31 3131  1..Host:.166.111
	0x0070:  2e38 2e31 3230 0d0a 5265 6665 7265 723a  .8.120..Referer:
	0x0080:  0d0a 436f 6e6e 6563 742d 7479 7065 3a61  ..Connect-type:a
	0x0090:  7070 6c69 6361 7469 6f6e 2f78 2d77 7777  pplication/x-www
	0x00a0:  2d66 6f72 6d2d 7572 6c65 6e63 6f64 6564  -form-urlencoded
	0x00b0:  0d0a 436f 6e74 656e 742d 6c65 6e67 7468  ..Content-length
	0x00c0:  3a31 3133 0d0a 436f 6e6e 6563 7469 6f6e  :113..Connection
	0x00d0:  3a20 436c 6f73 650d 0a0d 0a75 7365 726e  :.Close....usern
	0x00e0:  616d 653d 6470 6631 3326 7061 7373 776f  ame=dpf13&passwo
	0x00f0:  7264 3d39 6868 3838 6868 2533 6126 6472  rd=9hh88hh%3a&dr
	0x0100:  6f70 3d30 2674 7970 653d 3226 6e3d 3130  op=0&type=2&n=10
	0x0110:  3026 6d61 633d 2533 6163 6336 4163 6325  0&mac=%3acc6Acc%
	0x0120:  3363 2533 6463 6325 3430 3763 6338 2533  3c%3dcc%407cc8%3
	0x0130:  6563 6837 3868 6325 3430 2533 6463 6339  ech78hc%40%3dcc9
	0x0140:  2533 6663 6825 3361 2533 6363 0d0a 00    %3fch%3a%3cc...
15:02:02.973378 IP 101.5.99.181.49247 > 166.111.8.120.dec-notes: Flags [.], ack 267, win 123, options [nop,nop,TS val 5811272 ecr 4125772382], length 0
	0x0000:  001a a916 15b1 6067 20ac 73f4 0800 4500  ......`g..s...E.
	0x0010:  0034 c835 4000 4006 faec 6505 63b5 a66f  .4.5@.@...e.c..o
	0x0020:  0878 c05f 0d05 6726 653e d3e3 1f25 8010  .x._..g&e>...%..
	0x0030:  007b 84e4 0000 0101 080a 0058 ac48 f5ea  .{.........X.H..
	0x0040:  4a5e                                     J^
15:02:02.973552 IP 101.5.99.181.49247 > 166.111.8.120.dec-notes: Flags [F.], seq 269, ack 267, win 123, options [nop,nop,TS val 5811272 ecr 4125772382], length 0
	0x0000:  001a a916 15b1 6067 20ac 73f4 0800 4500  ......`g..s...E.
	0x0010:  0034 c836 4000 4006 faeb 6505 63b5 a66f  .4.6@.@...e.c..o
	0x0020:  0878 c05f 0d05 6726 653e d3e3 1f25 8011  .x._..g&e>...%..
	0x0030:  007b 84e3 0000 0101 080a 0058 ac48 f5ea  .{.........X.H..
	0x0040:  4a5e                                     J^
15:02:02.973663 IP 101.5.99.181.49247 > 166.111.8.120.dec-notes: Flags [R], seq 1730569534, win 0, length 0
	0x0000:  001a a916 15b1 6067 20ac 73f4 0800 4500  ......`g..s...E.
	0x0010:  0028 0000 4000 4006 c32e 6505 63b5 a66f  .(..@.@...e.c..o
	0x0020:  0878 c05f 0d05 6726 653e 0000 0000 5004  .x._..g&e>....P.
	0x0030:  0000 9e75 0000                           ...u..
15:02:02.973912 IP 101.5.99.181.49248 > 166.111.8.120.dec-notes: Flags [S], seq 2390248439, win 14600, options [mss 1460,sackOK,TS val 5811272 ecr 0,nop,wscale 7], length 0
	0x0000:  001a a916 15b1 6067 20ac 73f4 0800 4500  ......`g..s...E.
	0x0010:  003c e7bf 4000 4006 db5a 6505 63b5 a66f  .<..@.@..Ze.c..o
	0x0020:  0878 c060 0d05 8e78 4bf7 0000 0000 a002  .x.`...xK.......
	0x0030:  3908 42e0 0000 0204 05b4 0402 080a 0058  9.B............X
	0x0040:  ac48 0000 0000 0103 0307                 .H........
15:02:02.976656 IP 101.5.99.181.49248 > 166.111.8.120.dec-notes: Flags [.], ack 3560889483, win 115, options [nop,nop,TS val 5811275 ecr 4125772385], length 0
	0x0000:  001a a916 15b1 6067 20ac 73f4 0800 4500  ......`g..s...E.
	0x0010:  0034 e7c0 4000 4006 db61 6505 63b5 a66f  .4..@.@..ae.c..o
	0x0020:  0878 c060 0d05 8e78 4bf8 d43e dc8b 8010  .x.`...xK..>....
	0x0030:  0073 b917 0000 0101 080a 0058 ac4b f5ea  .s.........X.K..
	0x0040:  4a61                                     Ja
15:02:02.976807 IP 101.5.99.181.49248 > 166.111.8.120.dec-notes: Flags [P.], seq 0:267, ack 1, win 115, options [nop,nop,TS val 5811275 ecr 4125772385], length 267
	0x0000:  001a a916 15b1 6067 20ac 73f4 0800 4500  ......`g..s...E.
	0x0010:  013f e7c1 4000 4006 da55 6505 63b5 a66f  .?..@.@..Ue.c..o
	0x0020:  0878 c060 0d05 8e78 4bf8 d43e dc8b 8018  .x.`...xK..>....
	0x0030:  0073 4630 0000 0101 080a 0058 ac4b f5ea  .sF0.......X.K..
	0x0040:  4a61 504f 5354 202f 6367 692d 6269 6e2f  JaPOST./cgi-bin/
	0x0050:  646f 5f6c 6f67 696e 2048 5454 502f 312e  do_login.HTTP/1.
	0x0060:  310d 0a48 6f73 743a 2031 3636 2e31 3131  1..Host:.166.111
	0x0070:  2e38 2e31 3230 0d0a 5265 6665 7265 723a  .8.120..Referer:
	0x0080:  0d0a 436f 6e6e 6563 742d 7479 7065 3a61  ..Connect-type:a
	0x0090:  7070 6c69 6361 7469 6f6e 2f78 2d77 7777  pplication/x-www
	0x00a0:  2d66 6f72 6d2d 7572 6c65 6e63 6f64 6564  -form-urlencoded
	0x00b0:  0d0a 436f 6e74 656e 742d 6c65 6e67 7468  ..Content-length
	0x00c0:  3a31 3131 0d0a 436f 6e6e 6563 7469 6f6e  :111..Connection
	0x00d0:  3a20 436c 6f73 650d 0a0d 0a75 7365 726e  :.Close....usern
	0x00e0:  616d 653d 6470 6631 3326 7061 7373 776f  ame=dpf13&passwo
	0x00f0:  7264 3d36 6868 3838 6868 2533 6126 6472  rd=6hh88hh%3a&dr
	0x0100:  6f70 3d30 2674 7970 653d 3226 6e3d 3130  op=0&type=2&n=10
	0x0110:  3026 6d61 633d 2533 6463 6336 4163 6325  0&mac=%3dcc6Acc%
	0x0120:  3363 2533 6463 6325 3430 3763 6338 4163  3c%3dcc%407cc8Ac
	0x0130:  6837 3868 6325 3430 2533 6463 6339 2533  h78hc%40%3dcc9%3
	0x0140:  6663 6825 3361 2533 6263 0d0a 00         fch%3a%3bc...
15:02:02.978880 IP 101.5.99.181.49247 > 166.111.8.120.dec-notes: Flags [R], seq 1730569535, win 0, length 0
	0x0000:  001a a916 15b1 6067 20ac 73f4 0800 4500  ......`g..s...E.
	0x0010:  0028 0000 4000 4006 c32e 6505 63b5 a66f  .(..@.@...e.c..o
	0x0020:  0878 c05f 0d05 6726 653f 0000 0000 5004  .x._..g&e?....P.
	0x0030:  0000 9e74 0000                           ...t..
15:02:03.016782 IP 101.5.99.181.49248 > 166.111.8.120.dec-notes: Flags [.], ack 267, win 123, options [nop,nop,TS val 5811315 ecr 4125772426], length 0
	0x0000:  001a a916 15b1 6067 20ac 73f4 0800 4500  ......`g..s...E.
	0x0010:  0034 e7c2 4000 4006 db5f 6505 63b5 a66f  .4..@.@.._e.c..o
	0x0020:  0878 c060 0d05 8e78 4d03 d43e dd95 8010  .x.`...xM..>....
	0x0030:  007b b6a9 0000 0101 080a 0058 ac73 f5ea  .{.........X.s..
	0x0040:  4a8a                                     J.
15:02:03.016948 IP 101.5.99.181.49248 > 166.111.8.120.dec-notes: Flags [F.], seq 267, ack 267, win 123, options [nop,nop,TS val 5811315 ecr 4125772426], length 0
	0x0000:  001a a916 15b1 6067 20ac 73f4 0800 4500  ......`g..s...E.
	0x0010:  0034 e7c3 4000 4006 db5e 6505 63b5 a66f  .4..@.@..^e.c..o
	0x0020:  0878 c060 0d05 8e78 4d03 d43e dd95 8011  .x.`...xM..>....
	0x0030:  007b b6a8 0000 0101 080a 0058 ac73 f5ea  .{.........X.s..
	0x0040:  4a8a                                     J.
15:02:03.017086 IP 101.5.99.181.49248 > 166.111.8.120.dec-notes: Flags [R], seq 2390248707, win 0, length 0
	0x0000:  001a a916 15b1 6067 20ac 73f4 0800 4500  ......`g..s...E.
	0x0010:  0028 0000 4000 4006 c32e 6505 63b5 a66f  .(..@.@...e.c..o
	0x0020:  0878 c060 0d05 8e78 4d03 0000 0000 5004  .x.`...xM.....P.
	0x0030:  0000 8f5d 0000                           ...]..
15:02:03.019602 IP 101.5.99.181.49248 > 166.111.8.120.dec-notes: Flags [R], seq 2390248708, win 0, length 0
	0x0000:  001a a916 15b1 6067 20ac 73f4 0800 4500  ......`g..s...E.
	0x0010:  0028 0000 4000 4006 c32e 6505 63b5 a66f  .(..@.@...e.c..o
	0x0020:  0878 c060 0d05 8e78 4d04 0000 0000 5004  .x.`...xM.....P.
	0x0030:  0000 8f5c 0000                           ...\..
15:03:38.435261 IP 101.5.99.181.49249 > 166.111.8.120.dec-notes: Flags [S], seq 3135545376, win 14600, options [mss 1460,sackOK,TS val 5906733 ecr 0,nop,wscale 7], length 0
	0x0000:  001a a916 15b1 6067 20ac 73f4 0800 4500  ......`g..s...E.
	0x0010:  003c 810d 4000 4006 420d 6505 63b5 a66f  .<..@.@.B.e.c..o
	0x0020:  0878 c061 0d05 bae4 a020 0000 0000 a002  .x.a............
	0x0030:  3908 4d63 0000 0204 05b4 0402 080a 005a  9.Mc...........Z
	0x0040:  212d 0000 0000 0103 0307                 !-........
15:03:38.440220 IP 101.5.99.181.49249 > 166.111.8.120.dec-notes: Flags [.], ack 761470886, win 115, options [nop,nop,TS val 5906738 ecr 4125867841], length 0
	0x0000:  001a a916 15b1 6067 20ac 73f4 0800 4500  ......`g..s...E.
	0x0010:  0034 810e 4000 4006 4214 6505 63b5 a66f  .4..@.@.B.e.c..o
	0x0020:  0878 c061 0d05 bae4 a021 2d63 1fa6 8010  .x.a.....!-c....
	0x0030:  0073 b278 0000 0101 080a 005a 2132 f5eb  .s.x.......Z!2..
	0x0040:  bf41                                     .A
15:03:38.440342 IP 101.5.99.181.49249 > 166.111.8.120.dec-notes: Flags [P.], seq 0:269, ack 1, win 115, options [nop,nop,TS val 5906739 ecr 4125867841], length 269
	0x0000:  001a a916 15b1 6067 20ac 73f4 0800 4500  ......`g..s...E.
	0x0010:  0141 810f 4000 4006 4106 6505 63b5 a66f  .A..@.@.A.e.c..o
	0x0020:  0878 c061 0d05 bae4 a021 2d63 1fa6 8018  .x.a.....!-c....
	0x0030:  0073 1038 0000 0101 080a 005a 2133 f5eb  .s.8.......Z!3..
	0x0040:  bf41 504f 5354 202f 6367 692d 6269 6e2f  .APOST./cgi-bin/
	0x0050:  646f 5f6c 6f67 696e 2048 5454 502f 312e  do_login.HTTP/1.
	0x0060:  310d 0a48 6f73 743a 2031 3636 2e31 3131  1..Host:.166.111
	0x0070:  2e38 2e31 3230 0d0a 5265 6665 7265 723a  .8.120..Referer:
	0x0080:  0d0a 436f 6e6e 6563 742d 7479 7065 3a61  ..Connect-type:a
	0x0090:  7070 6c69 6361 7469 6f6e 2f78 2d77 7777  pplication/x-www
	0x00a0:  2d66 6f72 6d2d 7572 6c65 6e63 6f64 6564  -form-urlencoded
	0x00b0:  0d0a 436f 6e74 656e 742d 6c65 6e67 7468  ..Content-length
	0x00c0:  3a31 3133 0d0a 436f 6e6e 6563 7469 6f6e  :113..Connection
	0x00d0:  3a20 436c 6f73 650d 0a0d 0a75 7365 726e  :.Close....usern
	0x00e0:  616d 653d 6470 6631 3326 7061 7373 776f  ame=dpf13&passwo
	0x00f0:  7264 3d25 3364 6868 3939 6868 3726 6472  rd=%3dhh99hh7&dr
	0x0100:  6f70 3d30 2674 7970 653d 3226 6e3d 3130  op=0&type=2&n=10
	0x0110:  3026 6d61 633d 2533 6263 6336 4163 6325  0&mac=%3bcc6Acc%
	0x0120:  3363 2533 6463 6325 3430 3763 6338 2533  3c%3dcc%407cc8%3
	0x0130:  6663 6837 3868 6325 3430 2533 6463 6339  fch78hc%40%3dcc9
	0x0140:  2533 6663 6825 3361 2533 6463 0d0a 00    %3fch%3a%3dc...
15:03:38.511827 IP 101.5.99.181.49249 > 166.111.8.120.dec-notes: Flags [.], ack 267, win 123, options [nop,nop,TS val 5906810 ecr 4125867915], length 0
	0x0000:  001a a916 15b1 6067 20ac 73f4 0800 4500  ......`g..s...E.
	0x0010:  0034 8110 4000 4006 4212 6505 63b5 a66f  .4..@.@.B.e.c..o
	0x0020:  0878 c061 0d05 bae4 a12e 2d63 20b0 8010  .x.a......-c....
	0x0030:  007b afc7 0000 0101 080a 005a 217a f5eb  .{.........Z!z..
	0x0040:  bf8b                                     ..
15:03:38.512049 IP 101.5.99.181.49249 > 166.111.8.120.dec-notes: Flags [F.], seq 269, ack 267, win 123, options [nop,nop,TS val 5906810 ecr 4125867915], length 0
	0x0000:  001a a916 15b1 6067 20ac 73f4 0800 4500  ......`g..s...E.
	0x0010:  0034 8111 4000 4006 4211 6505 63b5 a66f  .4..@.@.B.e.c..o
	0x0020:  0878 c061 0d05 bae4 a12e 2d63 20b0 8011  .x.a......-c....
	0x0030:  007b afc6 0000 0101 080a 005a 217a f5eb  .{.........Z!z..
	0x0040:  bf8b                                     ..
15:03:38.512191 IP 101.5.99.181.49249 > 166.111.8.120.dec-notes: Flags [R], seq 3135545646, win 0, length 0
	0x0000:  001a a916 15b1 6067 20ac 73f4 0800 4500  ......`g..s...E.
	0x0010:  0028 0000 4000 4006 c32e 6505 63b5 a66f  .(..@.@...e.c..o
	0x0020:  0878 c061 0d05 bae4 a12e 0000 0000 5004  .x.a..........P.
	0x0030:  0000 0ec5 0000                           ......
15:03:38.512478 IP 101.5.99.181.49250 > 166.111.8.120.dec-notes: Flags [S], seq 1453744795, win 14600, options [mss 1460,sackOK,TS val 5906811 ecr 0,nop,wscale 7], length 0
	0x0000:  001a a916 15b1 6067 20ac 73f4 0800 4500  ......`g..s...E.
	0x0010:  003c 43e0 4000 4006 7f3a 6505 63b5 a66f  .<C.@.@..:e.c..o
	0x0020:  0878 c062 0d05 56a6 629b 0000 0000 a002  .x.b..V.b.......
	0x0030:  3908 eed7 0000 0204 05b4 0402 080a 005a  9..............Z
	0x0040:  217b 0000 0000 0103 0307                 !{........
15:03:38.513800 IP 101.5.99.181.49249 > 166.111.8.120.dec-notes: Flags [R], seq 3135545647, win 0, length 0
	0x0000:  001a a916 15b1 6067 20ac 73f4 0800 4500  ......`g..s...E.
	0x0010:  0028 0000 4000 4006 c32e 6505 63b5 a66f  .(..@.@...e.c..o
	0x0020:  0878 c061 0d05 bae4 a12f 0000 0000 5004  .x.a...../....P.
	0x0030:  0000 0ec4 0000                           ......
15:03:38.514801 IP 101.5.99.181.49250 > 166.111.8.120.dec-notes: Flags [.], ack 757358627, win 115, options [nop,nop,TS val 5906813 ecr 4125867918], length 0
	0x0000:  001a a916 15b1 6067 20ac 73f4 0800 4500  ......`g..s...E.
	0x0010:  0034 43e1 4000 4006 7f41 6505 63b5 a66f  .4C.@.@..Ae.c..o
	0x0020:  0878 c062 0d05 56a6 629c 2d24 6023 8010  .x.b..V.b.-$`#..
	0x0030:  0073 1365 0000 0101 080a 005a 217d f5eb  .s.e.......Z!}..
	0x0040:  bf8e                                     ..
15:03:38.514974 IP 101.5.99.181.49250 > 166.111.8.120.dec-notes: Flags [P.], seq 0:269, ack 1, win 115, options [nop,nop,TS val 5906813 ecr 4125867918], length 269
	0x0000:  001a a916 15b1 6067 20ac 73f4 0800 4500  ......`g..s...E.
	0x0010:  0141 43e2 4000 4006 7e33 6505 63b5 a66f  .AC.@.@.~3e.c..o
	0x0020:  0878 c062 0d05 56a6 629c 2d24 6023 8018  .x.b..V.b.-$`#..
	0x0030:  0073 7125 0000 0101 080a 005a 217d f5eb  .sq%.......Z!}..
	0x0040:  bf8e 504f 5354 202f 6367 692d 6269 6e2f  ..POST./cgi-bin/
	0x0050:  646f 5f6c 6f67 696e 2048 5454 502f 312e  do_login.HTTP/1.
	0x0060:  310d 0a48 6f73 743a 2031 3636 2e31 3131  1..Host:.166.111
	0x0070:  2e38 2e31 3230 0d0a 5265 6665 7265 723a  .8.120..Referer:
	0x0080:  0d0a 436f 6e6e 6563 742d 7479 7065 3a61  ..Connect-type:a
	0x0090:  7070 6c69 6361 7469 6f6e 2f78 2d77 7777  pplication/x-www
	0x00a0:  2d66 6f72 6d2d 7572 6c65 6e63 6f64 6564  -form-urlencoded
	0x00b0:  0d0a 436f 6e74 656e 742d 6c65 6e67 7468  ..Content-length
	0x00c0:  3a31 3133 0d0a 436f 6e6e 6563 7469 6f6e  :113..Connection
	0x00d0:  3a20 436c 6f73 650d 0a0d 0a75 7365 726e  :.Close....usern
	0x00e0:  616d 653d 6470 6631 3326 7061 7373 776f  ame=dpf13&passwo
	0x00f0:  7264 3d25 3364 6868 3939 6868 3726 6472  rd=%3dhh99hh7&dr
	0x0100:  6f70 3d30 2674 7970 653d 3226 6e3d 3130  op=0&type=2&n=10
	0x0110:  3026 6d61 633d 2533 6263 6336 4163 6325  0&mac=%3bcc6Acc%
	0x0120:  3363 2533 6463 6325 3430 3763 6338 2533  3c%3dcc%407cc8%3
	0x0130:  6663 6837 3868 6325 3430 2533 6463 6339  fch78hc%40%3dcc9
	0x0140:  2533 6663 6825 3361 2533 6463 0d0a 00    %3fch%3a%3dc...
15:03:38.566676 IP 101.5.99.181.49250 > 166.111.8.120.dec-notes: Flags [.], ack 267, win 123, options [nop,nop,TS val 5906865 ecr 4125867968], length 0
	0x0000:  001a a916 15b1 6067 20ac 73f4 0800 4500  ......`g..s...E.
	0x0010:  0034 43e3 4000 4006 7f3f 6505 63b5 a66f  .4C.@.@..?e.c..o
	0x0020:  0878 c062 0d05 56a6 63a9 2d24 612d 8010  .x.b..V.c.-$a-..
	0x0030:  007b 10e0 0000 0101 080a 005a 21b1 f5eb  .{.........Z!...
	0x0040:  bfc0                                     ..
15:03:38.566812 IP 101.5.99.181.49250 > 166.111.8.120.dec-notes: Flags [.], ack 272, win 123, options [nop,nop,TS val 5906865 ecr 4125867968], length 0
	0x0000:  001a a916 15b1 6067 20ac 73f4 0800 4500  ......`g..s...E.
	0x0010:  0034 43e4 4000 4006 7f3e 6505 63b5 a66f  .4C.@.@..>e.c..o
	0x0020:  0878 c062 0d05 56a6 63a9 2d24 6132 8010  .x.b..V.c.-$a2..
	0x0030:  007b 10db 0000 0101 080a 005a 21b1 f5eb  .{.........Z!...
	0x0040:  bfc0                                     ..
15:03:38.566966 IP 101.5.99.181.49250 > 166.111.8.120.dec-notes: Flags [F.], seq 269, ack 273, win 123, options [nop,nop,TS val 5906865 ecr 4125867968], length 0
	0x0000:  001a a916 15b1 6067 20ac 73f4 0800 4500  ......`g..s...E.
	0x0010:  0034 43e5 4000 4006 7f3d 6505 63b5 a66f  .4C.@.@..=e.c..o
	0x0020:  0878 c062 0d05 56a6 63a9 2d24 6133 8011  .x.b..V.c.-$a3..
	0x0030:  007b 10d9 0000 0101 080a 005a 21b1 f5eb  .{.........Z!...
	0x0040:  bfc0                                     ..
15:04:58.639879 IP 101.5.99.181.49251 > 166.111.8.120.dec-notes: Flags [S], seq 2198023372, win 14600, options [mss 1460,sackOK,TS val 5986938 ecr 0,nop,wscale 7], length 0
	0x0000:  001a a916 15b1 6067 20ac 73f4 0800 4500  ......`g..s...E.
	0x0010:  003c 76b6 4000 4006 4c64 6505 63b5 a66f  .<v.@.@.Lde.c..o
	0x0020:  0878 c063 0d05 8303 2ccc 0000 0000 a002  .x.c....,.......
	0x0030:  3908 bf48 0000 0204 05b4 0402 080a 005b  9..H...........[
	0x0040:  5a7a 0000 0000 0103 0307                 Zz........
15:04:58.642597 IP 101.5.99.181.49251 > 166.111.8.120.dec-notes: Flags [.], ack 2002558674, win 115, options [nop,nop,TS val 5986941 ecr 4125948040], length 0
	0x0000:  001a a916 15b1 6067 20ac 73f4 0800 4500  ......`g..s...E.
	0x0010:  0034 76b7 4000 4006 4c6b 6505 63b5 a66f  .4v.@.@.Lke.c..o
	0x0020:  0878 c063 0d05 8303 2ccd 775c 9ed2 8010  .x.c....,.w\....
	0x0030:  0073 21f2 0000 0101 080a 005b 5a7d f5ec  .s!........[Z}..
	0x0040:  f888                                     ..
15:04:58.642793 IP 101.5.99.181.49251 > 166.111.8.120.dec-notes: Flags [P.], seq 0:257, ack 1, win 115, options [nop,nop,TS val 5986941 ecr 4125948040], length 257
	0x0000:  001a a916 15b1 6067 20ac 73f4 0800 4500  ......`g..s...E.
	0x0010:  0135 76b8 4000 4006 4b69 6505 63b5 a66f  .5v.@.@.Kie.c..o
	0x0020:  0878 c063 0d05 8303 2ccd 775c 9ed2 8018  .x.c....,.w\....
	0x0030:  0073 4366 0000 0101 080a 005b 5a7d f5ec  .sCf.......[Z}..
	0x0040:  f888 504f 5354 202f 6367 692d 6269 6e2f  ..POST./cgi-bin/
	0x0050:  646f 5f6c 6f67 696e 2048 5454 502f 312e  do_login.HTTP/1.
	0x0060:  310d 0a48 6f73 743a 2031 3636 2e31 3131  1..Host:.166.111
	0x0070:  2e38 2e31 3230 0d0a 5265 6665 7265 723a  .8.120..Referer:
	0x0080:  0d0a 436f 6e6e 6563 742d 7479 7065 3a61  ..Connect-type:a
	0x0090:  7070 6c69 6361 7469 6f6e 2f78 2d77 7777  pplication/x-www
	0x00a0:  2d66 6f72 6d2d 7572 6c65 6e63 6f64 6564  -form-urlencoded
	0x00b0:  0d0a 436f 6e74 656e 742d 6c65 6e67 7468  ..Content-length
	0x00c0:  3a31 3031 0d0a 436f 6e6e 6563 7469 6f6e  :101..Connection
	0x00d0:  3a20 436c 6f73 650d 0a0d 0a75 7365 726e  :.Close....usern
	0x00e0:  616d 653d 6470 6631 3326 7061 7373 776f  ame=dpf13&passwo
	0x00f0:  7264 3d25 3362 6826 6472 6f70 3d30 2674  rd=%3bh&drop=0&t
	0x0100:  7970 653d 3226 6e3d 3130 3026 6d61 633d  ype=2&n=100&mac=
	0x0110:  3863 6336 4163 6325 3363 2533 6463 6325  8cc6Acc%3c%3dcc%
	0x0120:  3430 3763 6338 4463 6837 3868 6325 3430  407cc8Dch78hc%40
	0x0130:  2533 6463 6339 2533 6663 6825 3361 3663  %3dcc9%3fch%3a6c
	0x0140:  0d0a 00                                  ...
15:04:58.729585 IP 101.5.99.181.49251 > 166.111.8.120.dec-notes: Flags [.], ack 267, win 123, options [nop,nop,TS val 5987028 ecr 4125948125], length 0
	0x0000:  001a a916 15b1 6067 20ac 73f4 0800 4500  ......`g..s...E.
	0x0010:  0034 76b9 4000 4006 4c69 6505 63b5 a66f  .4v.@.@.Lie.c..o
	0x0020:  0878 c063 0d05 8303 2dce 775c 9fdc 8010  .x.c....-.w\....
	0x0030:  007b 1f33 0000 0101 080a 005b 5ad4 f5ec  .{.3.......[Z...
	0x0040:  f8dd                                     ..
15:04:58.729726 IP 101.5.99.181.49251 > 166.111.8.120.dec-notes: Flags [.], ack 272, win 123, options [nop,nop,TS val 5987028 ecr 4125948125], length 0
	0x0000:  001a a916 15b1 6067 20ac 73f4 0800 4500  ......`g..s...E.
	0x0010:  0034 76ba 4000 4006 4c68 6505 63b5 a66f  .4v.@.@.Lhe.c..o
	0x0020:  0878 c063 0d05 8303 2dce 775c 9fe1 8010  .x.c....-.w\....
	0x0030:  007b 1f2e 0000 0101 080a 005b 5ad4 f5ec  .{.........[Z...
	0x0040:  f8dd                                     ..
15:04:58.729845 IP 101.5.99.181.49251 > 166.111.8.120.dec-notes: Flags [F.], seq 257, ack 273, win 123, options [nop,nop,TS val 5987028 ecr 4125948125], length 0
	0x0000:  001a a916 15b1 6067 20ac 73f4 0800 4500  ......`g..s...E.
	0x0010:  0034 76bb 4000 4006 4c67 6505 63b5 a66f  .4v.@.@.Lge.c..o
	0x0020:  0878 c063 0d05 8303 2dce 775c 9fe2 8011  .x.c....-.w\....
	0x0030:  007b 1f2c 0000 0101 080a 005b 5ad4 f5ec  .{.,.......[Z...
	0x0040:  f8dd                                     ..
15:04:58.730010 IP 101.5.99.181.49252 > 166.111.8.120.dec-notes: Flags [S], seq 2064220277, win 14600, options [mss 1460,sackOK,TS val 5987028 ecr 0,nop,wscale 7], length 0
	0x0000:  001a a916 15b1 6067 20ac 73f4 0800 4500  ......`g..s...E.
	0x0010:  003c daa1 4000 4006 e878 6505 63b5 a66f  .<..@.@..xe.c..o
	0x0020:  0878 c064 0d05 7b09 8075 0000 0000 a002  .x.d..{..u......
	0x0030:  3908 733e 0000 0204 05b4 0402 080a 005b  9.s>...........[
	0x0040:  5ad4 0000 0000 0103 0307                 Z.........
15:04:58.736589 IP 101.5.99.181.49252 > 166.111.8.120.dec-notes: Flags [.], ack 2012972055, win 115, options [nop,nop,TS val 5987035 ecr 4125948134], length 0
	0x0000:  001a a916 15b1 6067 20ac 73f4 0800 4500  ......`g..s...E.
	0x0010:  0034 daa2 4000 4006 e87f 6505 63b5 a66f  .4..@.@...e.c..o
	0x0020:  0878 c064 0d05 7b09 8076 77fb 8417 8010  .x.d..{..vw.....
	0x0030:  0073 efa1 0000 0101 080a 005b 5adb f5ec  .s.........[Z...
	0x0040:  f8e6                                     ..
15:04:58.736755 IP 101.5.99.181.49252 > 166.111.8.120.dec-notes: Flags [P.], seq 0:257, ack 1, win 115, options [nop,nop,TS val 5987035 ecr 4125948134], length 257
	0x0000:  001a a916 15b1 6067 20ac 73f4 0800 4500  ......`g..s...E.
	0x0010:  0135 daa3 4000 4006 e77d 6505 63b5 a66f  .5..@.@..}e.c..o
	0x0020:  0878 c064 0d05 7b09 8076 77fb 8417 8018  .x.d..{..vw.....
	0x0030:  0073 1116 0000 0101 080a 005b 5adb f5ec  .s.........[Z...
	0x0040:  f8e6 504f 5354 202f 6367 692d 6269 6e2f  ..POST./cgi-bin/
	0x0050:  646f 5f6c 6f67 696e 2048 5454 502f 312e  do_login.HTTP/1.
	0x0060:  310d 0a48 6f73 743a 2031 3636 2e31 3131  1..Host:.166.111
	0x0070:  2e38 2e31 3230 0d0a 5265 6665 7265 723a  .8.120..Referer:
	0x0080:  0d0a 436f 6e6e 6563 742d 7479 7065 3a61  ..Connect-type:a
	0x0090:  7070 6c69 6361 7469 6f6e 2f78 2d77 7777  pplication/x-www
	0x00a0:  2d66 6f72 6d2d 7572 6c65 6e63 6f64 6564  -form-urlencoded
	0x00b0:  0d0a 436f 6e74 656e 742d 6c65 6e67 7468  ..Content-length
	0x00c0:  3a31 3031 0d0a 436f 6e6e 6563 7469 6f6e  :101..Connection
	0x00d0:  3a20 436c 6f73 650d 0a0d 0a75 7365 726e  :.Close....usern
	0x00e0:  616d 653d 6470 6631 3326 7061 7373 776f  ame=dpf13&passwo
	0x00f0:  7264 3d25 3362 6826 6472 6f70 3d30 2674  rd=%3bh&drop=0&t
	0x0100:  7970 653d 3226 6e3d 3130 3026 6d61 633d  ype=2&n=100&mac=
	0x0110:  3863 6336 4163 6325 3363 2533 6463 6325  8cc6Acc%3c%3dcc%
	0x0120:  3430 3763 6338 4463 6837 3868 6325 3430  407cc8Dch78hc%40
	0x0130:  2533 6463 6339 2533 6663 6825 3361 3663  %3dcc9%3fch%3a6c
	0x0140:  0d0a 00                                  ...
15:04:58.781165 IP 101.5.99.181.49252 > 166.111.8.120.dec-notes: Flags [.], ack 267, win 123, options [nop,nop,TS val 5987079 ecr 4125948177], length 0
	0x0000:  001a a916 15b1 6067 20ac 73f4 0800 4500  ......`g..s...E.
	0x0010:  0034 daa4 4000 4006 e87d 6505 63b5 a66f  .4..@.@..}e.c..o
	0x0020:  0878 c064 0d05 7b09 8177 77fb 8521 8010  .x.d..{..ww..!..
	0x0030:  007b ed37 0000 0101 080a 005b 5b07 f5ec  .{.7.......[[...
	0x0040:  f911                                     ..
15:04:58.781360 IP 101.5.99.181.49252 > 166.111.8.120.dec-notes: Flags [.], ack 272, win 123, options [nop,nop,TS val 5987080 ecr 4125948177], length 0
	0x0000:  001a a916 15b1 6067 20ac 73f4 0800 4500  ......`g..s...E.
	0x0010:  0034 daa5 4000 4006 e87c 6505 63b5 a66f  .4..@.@..|e.c..o
	0x0020:  0878 c064 0d05 7b09 8177 77fb 8526 8010  .x.d..{..ww..&..
	0x0030:  007b ed31 0000 0101 080a 005b 5b08 f5ec  .{.1.......[[...
	0x0040:  f911                                     ..
15:04:58.781494 IP 101.5.99.181.49252 > 166.111.8.120.dec-notes: Flags [F.], seq 257, ack 273, win 123, options [nop,nop,TS val 5987080 ecr 4125948177], length 0
	0x0000:  001a a916 15b1 6067 20ac 73f4 0800 4500  ......`g..s...E.
	0x0010:  0034 daa6 4000 4006 e87b 6505 63b5 a66f  .4..@.@..{e.c..o
	0x0020:  0878 c064 0d05 7b09 8177 77fb 8527 8011  .x.d..{..ww..'..
	0x0030:  007b ed2f 0000 0101 080a 005b 5b08 f5ec  .{./.......[[...
	0x0040:  f911                                     ..
15:05:51.930680 IP 101.5.99.181.49253 > 166.111.8.120.dec-notes: Flags [S], seq 1216063273, win 14600, options [mss 1460,sackOK,TS val 6040229 ecr 0,nop,wscale 7], length 0
	0x0000:  001a a916 15b1 6067 20ac 73f4 0800 4500  ......`g..s...E.
	0x0010:  003c 8d8c 4000 4006 358e 6505 63b5 a66f  .<..@.@.5.e.c..o
	0x0020:  0878 c065 0d05 487b a729 0000 0000 a002  .x.e..H{.)......
	0x0030:  3908 af45 0000 0204 05b4 0402 080a 005c  9..E...........\
	0x0040:  2aa5 0000 0000 0103 0307                 *.........
15:05:51.933007 IP 101.5.99.181.49253 > 166.111.8.120.dec-notes: Flags [.], ack 2867416477, win 115, options [nop,nop,TS val 6040231 ecr 4126001328], length 0
	0x0000:  001a a916 15b1 6067 20ac 73f4 0800 4500  ......`g..s...E.
	0x0010:  0034 8d8d 4000 4006 3595 6505 63b5 a66f  .4..@.@.5.e.c..o
	0x0020:  0878 c065 0d05 487b a72a aae9 4d9d 8010  .x.e..H{.*..M...
	0x0030:  0073 5f6f 0000 0101 080a 005c 2aa7 f5ed  .s_o.......\*...
	0x0040:  c8b0                                     ..
15:05:51.933118 IP 101.5.99.181.49253 > 166.111.8.120.dec-notes: Flags [P.], seq 0:261, ack 1, win 115, options [nop,nop,TS val 6040231 ecr 4126001328], length 261
	0x0000:  001a a916 15b1 6067 20ac 73f4 0800 4500  ......`g..s...E.
	0x0010:  0139 8d8e 4000 4006 348f 6505 63b5 a66f  .9..@.@.4.e.c..o
	0x0020:  0878 c065 0d05 487b a72a aae9 4d9d 8018  .x.e..H{.*..M...
	0x0030:  0073 d922 0000 0101 080a 005c 2aa7 f5ed  .s.".......\*...
	0x0040:  c8b0 504f 5354 202f 6367 692d 6269 6e2f  ..POST./cgi-bin/
	0x0050:  646f 5f6c 6f67 696e 2048 5454 502f 312e  do_login.HTTP/1.
	0x0060:  310d 0a48 6f73 743a 2031 3636 2e31 3131  1..Host:.166.111
	0x0070:  2e38 2e31 3230 0d0a 5265 6665 7265 723a  .8.120..Referer:
	0x0080:  0d0a 436f 6e6e 6563 742d 7479 7065 3a61  ..Connect-type:a
	0x0090:  7070 6c69 6361 7469 6f6e 2f78 2d77 7777  pplication/x-www
	0x00a0:  2d66 6f72 6d2d 7572 6c65 6e63 6f64 6564  -form-urlencoded
	0x00b0:  0d0a 436f 6e74 656e 742d 6c65 6e67 7468  ..Content-length
	0x00c0:  3a31 3035 0d0a 436f 6e6e 6563 7469 6f6e  :105..Connection
	0x00d0:  3a20 436c 6f73 650d 0a0d 0a75 7365 726e  :.Close....usern
	0x00e0:  616d 653d 6470 6631 3326 7061 7373 776f  ame=dpf13&passwo
	0x00f0:  7264 3d37 6868 3838 6868 3726 6472 6f70  rd=7hh88hh7&drop
	0x0100:  3d30 2674 7970 653d 3226 6e3d 3130 3026  =0&type=2&n=100&
	0x0110:  6d61 633d 3963 6336 4163 6325 3363 2533  mac=9cc6Acc%3c%3
	0x0120:  6463 6325 3430 3763 6338 4563 6837 3868  dcc%407cc8Ech78h
	0x0130:  6325 3430 2533 6463 6339 2533 6663 6825  c%40%3dcc9%3fch%
	0x0140:  3361 3763 0d0a 00                        3a7c...
15:05:51.969607 IP 101.5.99.181.49253 > 166.111.8.120.dec-notes: Flags [.], ack 267, win 123, options [nop,nop,TS val 6040268 ecr 4126001364], length 0
	0x0000:  001a a916 15b1 6067 20ac 73f4 0800 4500  ......`g..s...E.
	0x0010:  0034 8d8f 4000 4006 3593 6505 63b5 a66f  .4..@.@.5.e.c..o
	0x0020:  0878 c065 0d05 487b a82f aae9 4ea7 8010  .x.e..H{./..N...
	0x0030:  007b 5d0f 0000 0101 080a 005c 2acc f5ed  .{]........\*...
	0x0040:  c8d4                                     ..
15:05:51.969749 IP 101.5.99.181.49253 > 166.111.8.120.dec-notes: Flags [.], ack 272, win 123, options [nop,nop,TS val 6040268 ecr 4126001364], length 0
	0x0000:  001a a916 15b1 6067 20ac 73f4 0800 4500  ......`g..s...E.
	0x0010:  0034 8d90 4000 4006 3592 6505 63b5 a66f  .4..@.@.5.e.c..o
	0x0020:  0878 c065 0d05 487b a82f aae9 4eac 8010  .x.e..H{./..N...
	0x0030:  007b 5d0a 0000 0101 080a 005c 2acc f5ed  .{]........\*...
	0x0040:  c8d4                                     ..
15:05:51.969890 IP 101.5.99.181.49253 > 166.111.8.120.dec-notes: Flags [F.], seq 261, ack 272, win 123, options [nop,nop,TS val 6040268 ecr 4126001364], length 0
	0x0000:  001a a916 15b1 6067 20ac 73f4 0800 4500  ......`g..s...E.
	0x0010:  0034 8d91 4000 4006 3591 6505 63b5 a66f  .4..@.@.5.e.c..o
	0x0020:  0878 c065 0d05 487b a82f aae9 4eac 8011  .x.e..H{./..N...
	0x0030:  007b 5d09 0000 0101 080a 005c 2acc f5ed  .{]........\*...
	0x0040:  c8d4                                     ..
15:05:51.970146 IP 101.5.99.181.49254 > 166.111.8.120.dec-notes: Flags [S], seq 3996780863, win 14600, options [mss 1460,sackOK,TS val 6040268 ecr 0,nop,wscale 7], length 0
	0x0000:  001a a916 15b1 6067 20ac 73f4 0800 4500  ......`g..s...E.
	0x0010:  003c 23f3 4000 4006 9f27 6505 63b5 a66f  .<#.@.@..'e.c..o
	0x0020:  0878 c066 0d05 ee3a 093f 0000 0000 a002  .x.f...:.?......
	0x0030:  3908 a748 0000 0204 05b4 0402 080a 005c  9..H...........\
	0x0040:  2acc 0000 0000 0103 0307                 *.........
15:05:51.973202 IP 101.5.99.181.49253 > 166.111.8.120.dec-notes: Flags [.], ack 273, win 123, options [nop,nop,TS val 6040271 ecr 4126001364], length 0
	0x0000:  001a a916 15b1 6067 20ac 73f4 0800 4500  ......`g..s...E.
	0x0010:  0034 8d92 4000 4006 3590 6505 63b5 a66f  .4..@.@.5.e.c..o
	0x0020:  0878 c065 0d05 487b a830 aae9 4ead 8010  .x.e..H{.0..N...
	0x0030:  007b 5d05 0000 0101 080a 005c 2acf f5ed  .{]........\*...
	0x0040:  c8d4                                     ..
15:05:51.976261 IP 101.5.99.181.49254 > 166.111.8.120.dec-notes: Flags [.], ack 2864680880, win 115, options [nop,nop,TS val 6040275 ecr 4126001368], length 0
	0x0000:  001a a916 15b1 6067 20ac 73f4 0800 4500  ......`g..s...E.
	0x0010:  0034 23f4 4000 4006 9f2e 6505 63b5 a66f  .4#.@.@...e.c..o
	0x0020:  0878 c066 0d05 ee3a 0940 aabf 8fb0 8010  .x.f...:.@......
	0x0030:  0073 155c 0000 0101 080a 005c 2ad3 f5ed  .s.\.......\*...
	0x0040:  c8d8                                     ..
15:05:51.976436 IP 101.5.99.181.49254 > 166.111.8.120.dec-notes: Flags [P.], seq 0:261, ack 1, win 115, options [nop,nop,TS val 6040275 ecr 4126001368], length 261
	0x0000:  001a a916 15b1 6067 20ac 73f4 0800 4500  ......`g..s...E.
	0x0010:  0139 23f5 4000 4006 9e28 6505 63b5 a66f  .9#.@.@..(e.c..o
	0x0020:  0878 c066 0d05 ee3a 0940 aabf 8fb0 8018  .x.f...:.@......
	0x0030:  0073 8f0f 0000 0101 080a 005c 2ad3 f5ed  .s.........\*...
	0x0040:  c8d8 504f 5354 202f 6367 692d 6269 6e2f  ..POST./cgi-bin/
	0x0050:  646f 5f6c 6f67 696e 2048 5454 502f 312e  do_login.HTTP/1.
	0x0060:  310d 0a48 6f73 743a 2031 3636 2e31 3131  1..Host:.166.111
	0x0070:  2e38 2e31 3230 0d0a 5265 6665 7265 723a  .8.120..Referer:
	0x0080:  0d0a 436f 6e6e 6563 742d 7479 7065 3a61  ..Connect-type:a
	0x0090:  7070 6c69 6361 7469 6f6e 2f78 2d77 7777  pplication/x-www
	0x00a0:  2d66 6f72 6d2d 7572 6c65 6e63 6f64 6564  -form-urlencoded
	0x00b0:  0d0a 436f 6e74 656e 742d 6c65 6e67 7468  ..Content-length
	0x00c0:  3a31 3035 0d0a 436f 6e6e 6563 7469 6f6e  :105..Connection
	0x00d0:  3a20 436c 6f73 650d 0a0d 0a75 7365 726e  :.Close....usern
	0x00e0:  616d 653d 6470 6631 3326 7061 7373 776f  ame=dpf13&passwo
	0x00f0:  7264 3d37 6868 3838 6868 3726 6472 6f70  rd=7hh88hh7&drop
	0x0100:  3d30 2674 7970 653d 3226 6e3d 3130 3026  =0&type=2&n=100&
	0x0110:  6d61 633d 3963 6336 4163 6325 3363 2533  mac=9cc6Acc%3c%3
	0x0120:  6463 6325 3430 3763 6338 4563 6837 3868  dcc%407cc8Ech78h
	0x0130:  6325 3430 2533 6463 6339 2533 6663 6825  c%40%3dcc9%3fch%
	0x0140:  3361 3763 0d0a 00                        3a7c...
15:05:52.013070 IP 101.5.99.181.49254 > 166.111.8.120.dec-notes: Flags [.], ack 253, win 123, options [nop,nop,TS val 6040311 ecr 4126001407], length 0
	0x0000:  001a a916 15b1 6067 20ac 73f4 0800 4500  ......`g..s...E.
	0x0010:  0034 23f6 4000 4006 9f2c 6505 63b5 a66f  .4#.@.@..,e.c..o
	0x0020:  0878 c066 0d05 ee3a 0a45 aabf 90ac 8010  .x.f...:.E......
	0x0030:  007b 1308 0000 0101 080a 005c 2af7 f5ed  .{.........\*...
	0x0040:  c8ff                                     ..
15:05:52.013246 IP 101.5.99.181.49254 > 166.111.8.120.dec-notes: Flags [F.], seq 261, ack 254, win 123, options [nop,nop,TS val 6040311 ecr 4126001407], length 0
	0x0000:  001a a916 15b1 6067 20ac 73f4 0800 4500  ......`g..s...E.
	0x0010:  0034 23f7 4000 4006 9f2b 6505 63b5 a66f  .4#.@.@..+e.c..o
	0x0020:  0878 c066 0d05 ee3a 0a45 aabf 90ad 8011  .x.f...:.E......
	0x0030:  007b 1306 0000 0101 080a 005c 2af7 f5ed  .{.........\*...
	0x0040:  c8ff                                     ..
15:07:52.010490 IP 101.5.99.181.49259 > 166.111.8.120.dec-notes: Flags [S], seq 1587208247, win 14600, options [mss 1460,sackOK,TS val 6160309 ecr 0,nop,wscale 7], length 0
	0x0000:  001a a916 15b1 6067 20ac 73f4 0800 4500  ......`g..s...E.
	0x0010:  003c 1f82 4000 4006 a398 6505 63b5 a66f  .<..@.@...e.c..o
	0x0020:  0878 c06b 0d05 5e9a e037 0000 0000 a002  .x.k..^..7......
	0x0030:  3908 8b00 0000 0204 05b4 0402 080a 005d  9..............]
	0x0040:  ffb5 0000 0000 0103 0307                 ..........
15:07:52.014372 IP 101.5.99.181.49259 > 166.111.8.120.dec-notes: Flags [.], ack 446483597, win 115, options [nop,nop,TS val 6160313 ecr 4126121401], length 0
	0x0000:  001a a916 15b1 6067 20ac 73f4 0800 4500  ......`g..s...E.
	0x0010:  0034 1f83 4000 4006 a39f 6505 63b5 a66f  .4..@.@...e.c..o
	0x0020:  0878 c06b 0d05 5e9a e038 1a9c cc8d 8010  .x.k..^..8......
	0x0030:  0073 777a 0000 0101 080a 005d ffb9 f5ef  .swz.......]....
	0x0040:  9db9                                     ..
15:07:52.014488 IP 101.5.99.181.49259 > 166.111.8.120.dec-notes: Flags [P.], seq 0:261, ack 1, win 115, options [nop,nop,TS val 6160313 ecr 4126121401], length 261
	0x0000:  001a a916 15b1 6067 20ac 73f4 0800 4500  ......`g..s...E.
	0x0010:  0139 1f84 4000 4006 a299 6505 63b5 a66f  .9..@.@...e.c..o
	0x0020:  0878 c06b 0d05 5e9a e038 1a9c cc8d 8018  .x.k..^..8......
	0x0030:  0073 f32b 0000 0101 080a 005d ffb9 f5ef  .s.+.......]....
	0x0040:  9db9 504f 5354 202f 6367 692d 6269 6e2f  ..POST./cgi-bin/
	0x0050:  646f 5f6c 6f67 696e 2048 5454 502f 312e  do_login.HTTP/1.
	0x0060:  310d 0a48 6f73 743a 2031 3636 2e31 3131  1..Host:.166.111
	0x0070:  2e38 2e31 3230 0d0a 5265 6665 7265 723a  .8.120..Referer:
	0x0080:  0d0a 436f 6e6e 6563 742d 7479 7065 3a61  ..Connect-type:a
	0x0090:  7070 6c69 6361 7469 6f6e 2f78 2d77 7777  pplication/x-www
	0x00a0:  2d66 6f72 6d2d 7572 6c65 6e63 6f64 6564  -form-urlencoded
	0x00b0:  0d0a 436f 6e74 656e 742d 6c65 6e67 7468  ..Content-length
	0x00c0:  3a31 3035 0d0a 436f 6e6e 6563 7469 6f6e  :105..Connection
	0x00d0:  3a20 436c 6f73 650d 0a0d 0a75 7365 726e  :.Close....usern
	0x00e0:  616d 653d 6470 6631 3326 7061 7373 776f  ame=dpf13&passwo
	0x00f0:  7264 3d39 6868 3838 6868 3726 6472 6f70  rd=9hh88hh7&drop
	0x0100:  3d30 2674 7970 653d 3226 6e3d 3130 3026  =0&type=2&n=100&
	0x0110:  6d61 633d 3763 6336 4163 6325 3363 2533  mac=7cc6Acc%3c%3
	0x0120:  6463 6325 3430 3763 6338 4363 6837 3868  dcc%407cc8Cch78h
	0x0130:  6325 3430 2533 6463 6339 2533 6663 6825  c%40%3dcc9%3fch%
	0x0140:  3361 3963 0d0a 00                        3a9c...
15:07:52.087360 IP 101.5.99.181.49259 > 166.111.8.120.dec-notes: Flags [.], ack 267, win 123, options [nop,nop,TS val 6160386 ecr 4126121474], length 0
	0x0000:  001a a916 15b1 6067 20ac 73f4 0800 4500  ......`g..s...E.
	0x0010:  0034 1f85 4000 4006 a39d 6505 63b5 a66f  .4..@.@...e.c..o
	0x0020:  0878 c06b 0d05 5e9a e13d 1a9c cd97 8010  .x.k..^..=......
	0x0030:  007b 74d1 0000 0101 080a 005e 0002 f5ef  .{t........^....
	0x0040:  9e02                                     ..
15:07:52.087463 IP 101.5.99.181.49259 > 166.111.8.120.dec-notes: Flags [.], ack 272, win 123, options [nop,nop,TS val 6160386 ecr 4126121474], length 0
	0x0000:  001a a916 15b1 6067 20ac 73f4 0800 4500  ......`g..s...E.
	0x0010:  0034 1f86 4000 4006 a39c 6505 63b5 a66f  .4..@.@...e.c..o
	0x0020:  0878 c06b 0d05 5e9a e13d 1a9c cd9c 8010  .x.k..^..=......
	0x0030:  007b 74cc 0000 0101 080a 005e 0002 f5ef  .{t........^....
	0x0040:  9e02                                     ..
15:07:52.087517 IP 101.5.99.181.49259 > 166.111.8.120.dec-notes: Flags [F.], seq 261, ack 273, win 123, options [nop,nop,TS val 6160386 ecr 4126121474], length 0
	0x0000:  001a a916 15b1 6067 20ac 73f4 0800 4500  ......`g..s...E.
	0x0010:  0034 1f87 4000 4006 a39b 6505 63b5 a66f  .4..@.@...e.c..o
	0x0020:  0878 c06b 0d05 5e9a e13d 1a9c cd9d 8011  .x.k..^..=......
	0x0030:  007b 74ca 0000 0101 080a 005e 0002 f5ef  .{t........^....
	0x0040:  9e02                                     ..
15:07:52.087659 IP 101.5.99.181.49260 > 166.111.8.120.dec-notes: Flags [S], seq 3312001642, win 14600, options [mss 1460,sackOK,TS val 6160386 ecr 0,nop,wscale 7], length 0
	0x0000:  001a a916 15b1 6067 20ac 73f4 0800 4500  ......`g..s...E.
	0x0010:  003c 2268 4000 4006 a0b2 6505 63b5 a66f  .<"h@.@...e.c..o
	0x0020:  0878 c06c 0d05 c569 226a 0000 0000 a002  .x.l...i"j......
	0x0030:  3908 e1b0 0000 0204 05b4 0402 080a 005e  9..............^
	0x0040:  0002 0000 0000 0103 0307                 ..........
15:07:52.090573 IP 101.5.99.181.49260 > 166.111.8.120.dec-notes: Flags [.], ack 449709849, win 115, options [nop,nop,TS val 6160389 ecr 4126121477], length 0
	0x0000:  001a a916 15b1 6067 20ac 73f4 0800 4500  ......`g..s...E.
	0x0010:  0034 2269 4000 4006 a0b9 6505 63b5 a66f  .4"i@.@...e.c..o
	0x0020:  0878 c06c 0d05 c569 226b 1ace 0719 8010  .x.l...i"k......
	0x0030:  0073 9322 0000 0101 080a 005e 0005 f5ef  .s.".......^....
	0x0040:  9e05                                     ..
15:07:52.090704 IP 101.5.99.181.49260 > 166.111.8.120.dec-notes: Flags [P.], seq 0:261, ack 1, win 115, options [nop,nop,TS val 6160389 ecr 4126121477], length 261
	0x0000:  001a a916 15b1 6067 20ac 73f4 0800 4500  ......`g..s...E.
	0x0010:  0139 226a 4000 4006 9fb3 6505 63b5 a66f  .9"j@.@...e.c..o
	0x0020:  0878 c06c 0d05 c569 226b 1ace 0719 8018  .x.l...i"k......
	0x0030:  0073 0ed4 0000 0101 080a 005e 0005 f5ef  .s.........^....
	0x0040:  9e05 504f 5354 202f 6367 692d 6269 6e2f  ..POST./cgi-bin/
	0x0050:  646f 5f6c 6f67 696e 2048 5454 502f 312e  do_login.HTTP/1.
	0x0060:  310d 0a48 6f73 743a 2031 3636 2e31 3131  1..Host:.166.111
	0x0070:  2e38 2e31 3230 0d0a 5265 6665 7265 723a  .8.120..Referer:
	0x0080:  0d0a 436f 6e6e 6563 742d 7479 7065 3a61  ..Connect-type:a
	0x0090:  7070 6c69 6361 7469 6f6e 2f78 2d77 7777  pplication/x-www
	0x00a0:  2d66 6f72 6d2d 7572 6c65 6e63 6f64 6564  -form-urlencoded
	0x00b0:  0d0a 436f 6e74 656e 742d 6c65 6e67 7468  ..Content-length
	0x00c0:  3a31 3035 0d0a 436f 6e6e 6563 7469 6f6e  :105..Connection
	0x00d0:  3a20 436c 6f73 650d 0a0d 0a75 7365 726e  :.Close....usern
	0x00e0:  616d 653d 6470 6631 3326 7061 7373 776f  ame=dpf13&passwo
	0x00f0:  7264 3d39 6868 3838 6868 3726 6472 6f70  rd=9hh88hh7&drop
	0x0100:  3d30 2674 7970 653d 3226 6e3d 3130 3026  =0&type=2&n=100&
	0x0110:  6d61 633d 3763 6336 4163 6325 3363 2533  mac=7cc6Acc%3c%3
	0x0120:  6463 6325 3430 3763 6338 4363 6837 3868  dcc%407cc8Cch78h
	0x0130:  6325 3430 2533 6463 6339 2533 6663 6825  c%40%3dcc9%3fch%
	0x0140:  3361 3963 0d0a 00                        3a9c...
15:07:52.141969 IP 101.5.99.181.49260 > 166.111.8.120.dec-notes: Flags [.], ack 267, win 123, options [nop,nop,TS val 6160440 ecr 4126121529], length 0
	0x0000:  001a a916 15b1 6067 20ac 73f4 0800 4500  ......`g..s...E.
	0x0010:  0034 226b 4000 4006 a0b7 6505 63b5 a66f  .4"k@.@...e.c..o
	0x0020:  0878 c06c 0d05 c569 2370 1ace 0823 8010  .x.l...i#p...#..
	0x0030:  007b 90a4 0000 0101 080a 005e 0038 f5ef  .{.........^.8..
	0x0040:  9e39                                     .9
15:07:52.142064 IP 101.5.99.181.49260 > 166.111.8.120.dec-notes: Flags [F.], seq 261, ack 267, win 123, options [nop,nop,TS val 6160440 ecr 4126121529], length 0
	0x0000:  001a a916 15b1 6067 20ac 73f4 0800 4500  ......`g..s...E.
	0x0010:  0034 226c 4000 4006 a0b6 6505 63b5 a66f  .4"l@.@...e.c..o
	0x0020:  0878 c06c 0d05 c569 2370 1ace 0823 8011  .x.l...i#p...#..
	0x0030:  007b 90a3 0000 0101 080a 005e 0038 f5ef  .{.........^.8..
	0x0040:  9e39                                     .9
15:07:52.142216 IP 101.5.99.181.49260 > 166.111.8.120.dec-notes: Flags [R], seq 3312001904, win 0, length 0
	0x0000:  001a a916 15b1 6067 20ac 73f4 0800 4500  ......`g..s...E.
	0x0010:  0028 0000 4000 4006 c32e 6505 63b5 a66f  .(..@.@...e.c..o
	0x0020:  0878 c06c 0d05 c569 2370 0000 0000 5004  .x.l...i#p....P.
	0x0030:  0000 81f3 0000                           ......
15:07:52.142362 IP 101.5.99.181.49260 > 166.111.8.120.dec-notes: Flags [R], seq 3312001904, win 0, length 0
	0x0000:  001a a916 15b1 6067 20ac 73f4 0800 4500  ......`g..s...E.
	0x0010:  0028 0000 4000 4006 c32e 6505 63b5 a66f  .(..@.@...e.c..o
	0x0020:  0878 c06c 0d05 c569 2370 0000 0000 5004  .x.l...i#p....P.
	0x0030:  0000 81f3 0000                           ......
15:07:52.144852 IP 101.5.99.181.49260 > 166.111.8.120.dec-notes: Flags [R], seq 3312001905, win 0, length 0
	0x0000:  001a a916 15b1 6067 20ac 73f4 0800 4500  ......`g..s...E.
	0x0010:  0028 0000 4000 4006 c32e 6505 63b5 a66f  .(..@.@...e.c..o
	0x0020:  0878 c06c 0d05 c569 2371 0000 0000 5004  .x.l...i#q....P.
	0x0030:  0000 81f2 0000                           ......
15:09:25.776267 IP 101.5.99.181.49285 > 166.111.8.120.dec-notes: Flags [S], seq 810435958, win 14600, options [mss 1460,sackOK,TS val 6254074 ecr 0,nop,wscale 7], length 0
	0x0000:  001a a916 15b1 6067 20ac 73f4 0800 4500  ......`g..s...E.
	0x0010:  003c 288c 4000 4006 9a8e 6505 63b5 a66f  .<(.@.@...e.c..o
	0x0020:  0878 c085 0d05 304e 4576 0000 0000 a002  .x....0NEv......
	0x0030:  3908 e5ad 0000 0204 05b4 0402 080a 005f  9.............._
	0x0040:  6dfa 0000 0000 0103 0307                 m.........
15:09:25.778451 IP 101.5.99.181.49285 > 166.111.8.120.dec-notes: Flags [.], ack 1911222033, win 115, options [nop,nop,TS val 6254077 ecr 4126215159], length 0
	0x0000:  001a a916 15b1 6067 20ac 73f4 0800 4500  ......`g..s...E.
	0x0010:  0034 288d 4000 4006 9a95 6505 63b5 a66f  .4(.@.@...e.c..o
	0x0020:  0878 c085 0d05 304e 4577 71ea ef11 8010  .x....0NEwq.....
	0x0030:  0073 ea16 0000 0101 080a 005f 6dfd f5f1  .s........._m...
	0x0040:  0bf7                                     ..
15:09:25.778616 IP 101.5.99.181.49285 > 166.111.8.120.dec-notes: Flags [P.], seq 0:261, ack 1, win 115, options [nop,nop,TS val 6254077 ecr 4126215159], length 261
	0x0000:  001a a916 15b1 6067 20ac 73f4 0800 4500  ......`g..s...E.
	0x0010:  0139 288e 4000 4006 998f 6505 63b5 a66f  .9(.@.@...e.c..o
	0x0020:  0878 c085 0d05 304e 4577 71ea ef11 8018  .x....0NEwq.....
	0x0030:  0073 57be 0000 0101 080a 005f 6dfd f5f1  .sW........_m...
	0x0040:  0bf7 504f 5354 202f 6367 692d 6269 6e2f  ..POST./cgi-bin/
	0x0050:  646f 5f6c 6f67 696e 2048 5454 502f 312e  do_login.HTTP/1.
	0x0060:  310d 0a48 6f73 743a 2031 3636 2e31 3131  1..Host:.166.111
	0x0070:  2e38 2e31 3230 0d0a 5265 6665 7265 723a  .8.120..Referer:
	0x0080:  0d0a 436f 6e6e 6563 742d 7479 7065 3a61  ..Connect-type:a
	0x0090:  7070 6c69 6361 7469 6f6e 2f78 2d77 7777  pplication/x-www
	0x00a0:  2d66 6f72 6d2d 7572 6c65 6e63 6f64 6564  -form-urlencoded
	0x00b0:  0d0a 436f 6e74 656e 742d 6c65 6e67 7468  ..Content-length
	0x00c0:  3a31 3035 0d0a 436f 6e6e 6563 7469 6f6e  :105..Connection
	0x00d0:  3a20 436c 6f73 650d 0a0d 0a75 7365 726e  :.Close....usern
	0x00e0:  616d 653d 6470 6631 3326 7061 7373 776f  ame=dpf13&passwo
	0x00f0:  7264 3d43 6868 3838 6868 3726 6472 6f70  rd=Chh88hh7&drop
	0x0100:  3d30 2674 7970 653d 3226 6e3d 3130 3026  =0&type=2&n=100&
	0x0110:  6d61 633d 4563 6336 4163 6325 3363 2533  mac=Ecc6Acc%3c%3
	0x0120:  6463 6325 3430 3763 6338 3963 6837 3868  dcc%407cc89ch78h
	0x0130:  6325 3430 2533 6463 6339 2533 6663 6825  c%40%3dcc9%3fch%
	0x0140:  3361 4363 0d0a 00                        3aCc...
15:09:25.833365 IP 101.5.99.181.49285 > 166.111.8.120.dec-notes: Flags [.], ack 253, win 123, options [nop,nop,TS val 6254132 ecr 4126215214], length 0
	0x0000:  001a a916 15b1 6067 20ac 73f4 0800 4500  ......`g..s...E.
	0x0010:  0034 288f 4000 4006 9a93 6505 63b5 a66f  .4(.@.@...e.c..o
	0x0020:  0878 c085 0d05 304e 467c 71ea f00d 8010  .x....0NF|q.....
	0x0030:  007b e79f 0000 0101 080a 005f 6e34 f5f1  .{........._n4..
	0x0040:  0c2e                                     ..
15:09:25.833492 IP 101.5.99.181.49285 > 166.111.8.120.dec-notes: Flags [F.], seq 261, ack 253, win 123, options [nop,nop,TS val 6254132 ecr 4126215214], length 0
	0x0000:  001a a916 15b1 6067 20ac 73f4 0800 4500  ......`g..s...E.
	0x0010:  0034 2890 4000 4006 9a92 6505 63b5 a66f  .4(.@.@...e.c..o
	0x0020:  0878 c085 0d05 304e 467c 71ea f00d 8011  .x....0NF|q.....
	0x0030:  007b e79e 0000 0101 080a 005f 6e34 f5f1  .{........._n4..
	0x0040:  0c2e                                     ..
15:09:25.833680 IP 101.5.99.181.49286 > 166.111.8.120.dec-notes: Flags [S], seq 248771137, win 14600, options [mss 1460,sackOK,TS val 6254132 ecr 0,nop,wscale 7], length 0
	0x0000:  001a a916 15b1 6067 20ac 73f4 0800 4500  ......`g..s...E.
	0x0010:  003c 9c75 4000 4006 26a5 6505 63b5 a66f  .<.u@.@.&.e.c..o
	0x0020:  0878 c086 0d05 0ed3 f241 0000 0000 a002  .x.......A......
	0x0030:  3908 5a22 0000 0204 05b4 0402 080a 005f  9.Z"..........._
	0x0040:  6e34 0000 0000 0103 0307                 n4........
15:09:25.833804 IP 101.5.99.181.49285 > 166.111.8.120.dec-notes: Flags [.], ack 254, win 123, options [nop,nop,TS val 6254132 ecr 4126215214], length 0
	0x0000:  001a a916 15b1 6067 20ac 73f4 0800 4500  ......`g..s...E.
	0x0010:  0034 2891 4000 4006 9a91 6505 63b5 a66f  .4(.@.@...e.c..o
	0x0020:  0878 c085 0d05 304e 467d 71ea f00e 8010  .x....0NF}q.....
	0x0030:  007b e79d 0000 0101 080a 005f 6e34 f5f1  .{........._n4..
	0x0040:  0c2e                                     ..
15:09:25.835989 IP 101.5.99.181.49286 > 166.111.8.120.dec-notes: Flags [.], ack 1905248077, win 115, options [nop,nop,TS val 6254134 ecr 4126215217], length 0
	0x0000:  001a a916 15b1 6067 20ac 73f4 0800 4500  ......`g..s...E.
	0x0010:  0034 9c76 4000 4006 26ac 6505 63b5 a66f  .4.v@.@.&.e.c..o
	0x0020:  0878 c086 0d05 0ed3 f242 718f c74d 8010  .x.......Bq..M..
	0x0030:  0073 8671 0000 0101 080a 005f 6e36 f5f1  .s.q......._n6..
	0x0040:  0c31                                     .1
15:09:25.836090 IP 101.5.99.181.49286 > 166.111.8.120.dec-notes: Flags [P.], seq 0:261, ack 1, win 115, options [nop,nop,TS val 6254134 ecr 4126215217], length 261
	0x0000:  001a a916 15b1 6067 20ac 73f4 0800 4500  ......`g..s...E.
	0x0010:  0139 9c77 4000 4006 25a6 6505 63b5 a66f  .9.w@.@.%.e.c..o
	0x0020:  0878 c086 0d05 0ed3 f242 718f c74d 8018  .x.......Bq..M..
	0x0030:  0073 f418 0000 0101 080a 005f 6e36 f5f1  .s........._n6..
	0x0040:  0c31 504f 5354 202f 6367 692d 6269 6e2f  .1POST./cgi-bin/
	0x0050:  646f 5f6c 6f67 696e 2048 5454 502f 312e  do_login.HTTP/1.
	0x0060:  310d 0a48 6f73 743a 2031 3636 2e31 3131  1..Host:.166.111
	0x0070:  2e38 2e31 3230 0d0a 5265 6665 7265 723a  .8.120..Referer:
	0x0080:  0d0a 436f 6e6e 6563 742d 7479 7065 3a61  ..Connect-type:a
	0x0090:  7070 6c69 6361 7469 6f6e 2f78 2d77 7777  pplication/x-www
	0x00a0:  2d66 6f72 6d2d 7572 6c65 6e63 6f64 6564  -form-urlencoded
	0x00b0:  0d0a 436f 6e74 656e 742d 6c65 6e67 7468  ..Content-length
	0x00c0:  3a31 3035 0d0a 436f 6e6e 6563 7469 6f6e  :105..Connection
	0x00d0:  3a20 436c 6f73 650d 0a0d 0a75 7365 726e  :.Close....usern
	0x00e0:  616d 653d 6470 6631 3326 7061 7373 776f  ame=dpf13&passwo
	0x00f0:  7264 3d43 6868 3838 6868 3726 6472 6f70  rd=Chh88hh7&drop
	0x0100:  3d30 2674 7970 653d 3226 6e3d 3130 3026  =0&type=2&n=100&
	0x0110:  6d61 633d 4563 6336 4163 6325 3363 2533  mac=Ecc6Acc%3c%3
	0x0120:  6463 6325 3430 3763 6338 3963 6837 3868  dcc%407cc89ch78h
	0x0130:  6325 3430 2533 6463 6339 2533 6663 6825  c%40%3dcc9%3fch%
	0x0140:  3361 4363 0d0a 00                        3aCc...
15:09:25.876112 IP 101.5.99.181.49286 > 166.111.8.120.dec-notes: Flags [.], ack 267, win 123, options [nop,nop,TS val 6254174 ecr 4126215257], length 0
	0x0000:  001a a916 15b1 6067 20ac 73f4 0800 4500  ......`g..s...E.
	0x0010:  0034 9c78 4000 4006 26aa 6505 63b5 a66f  .4.x@.@.&.e.c..o
	0x0020:  0878 c086 0d05 0ed3 f347 718f c857 8010  .x.......Gq..W..
	0x0030:  007b 840a 0000 0101 080a 005f 6e5e f5f1  .{........._n^..
	0x0040:  0c59                                     .Y
15:09:25.876265 IP 101.5.99.181.49286 > 166.111.8.120.dec-notes: Flags [F.], seq 261, ack 267, win 123, options [nop,nop,TS val 6254175 ecr 4126215257], length 0
	0x0000:  001a a916 15b1 6067 20ac 73f4 0800 4500  ......`g..s...E.
	0x0010:  0034 9c79 4000 4006 26a9 6505 63b5 a66f  .4.y@.@.&.e.c..o
	0x0020:  0878 c086 0d05 0ed3 f347 718f c857 8011  .x.......Gq..W..
	0x0030:  007b 8408 0000 0101 080a 005f 6e5f f5f1  .{........._n_..
	0x0040:  0c59                                     .Y
15:09:25.876369 IP 101.5.99.181.49286 > 166.111.8.120.dec-notes: Flags [R], seq 248771399, win 0, length 0
	0x0000:  001a a916 15b1 6067 20ac 73f4 0800 4500  ......`g..s...E.
	0x0010:  0028 0000 4000 4006 c32e 6505 63b5 a66f  .(..@.@...e.c..o
	0x0020:  0878 c086 0d05 0ed3 f347 0000 0000 5004  .x.......G....P.
	0x0030:  0000 6898 0000                           ..h...
15:09:25.878756 IP 101.5.99.181.49286 > 166.111.8.120.dec-notes: Flags [R], seq 248771400, win 0, length 0
	0x0000:  001a a916 15b1 6067 20ac 73f4 0800 4500  ......`g..s...E.
	0x0010:  0028 0000 4000 4006 c32e 6505 63b5 a66f  .(..@.@...e.c..o
	0x0020:  0878 c086 0d05 0ed3 f348 0000 0000 5004  .x.......H....P.
	0x0030:  0000 6897 0000                           ..h...
15:10:40.062969 IP 101.5.99.181.59283 > 166.111.8.120.http: Flags [S], seq 987982805, win 14600, options [mss 1460,sackOK,TS val 6328361 ecr 0,nop,wscale 7], length 0
	0x0000:  001a a916 15b1 6067 20ac 73f4 0800 4500  ......`g..s...E.
	0x0010:  003c fbfc 4000 4006 c71d 6505 63b5 a66f  .<..@.@...e.c..o
	0x0020:  0878 e793 0050 3ae3 6bd5 0000 0000 a002  .x...P:.k.......
	0x0030:  3908 7830 0000 0204 05b4 0402 080a 0060  9.x0...........`
	0x0040:  9029 0000 0000 0103 0307                 .)........
15:10:40.064950 IP 101.5.99.181.59283 > 166.111.8.120.http: Flags [.], ack 3069711279, win 115, options [nop,nop,TS val 6328363 ecr 4126289458], length 0
	0x0000:  001a a916 15b1 6067 20ac 73f4 0800 4500  ......`g..s...E.
	0x0010:  0034 fbfd 4000 4006 c724 6505 63b5 a66f  .4..@.@..$e.c..o
	0x0020:  0878 e793 0050 3ae3 6bd6 b6f8 13af 8010  .x...P:.k.......
	0x0030:  0073 f0b2 0000 0101 080a 0060 902b f5f2  .s.........`.+..
	0x0040:  2e32                                     .2
15:10:40.065166 IP 101.5.99.181.59283 > 166.111.8.120.http: Flags [P.], seq 0:284, ack 1, win 115, options [nop,nop,TS val 6328363 ecr 4126289458], length 284
	0x0000:  001a a916 15b1 6067 20ac 73f4 0800 4500  ......`g..s...E.
	0x0010:  0150 fbfe 4000 4006 c607 6505 63b5 a66f  .P..@.@...e.c..o
	0x0020:  0878 e793 0050 3ae3 6bd6 b6f8 13af 8018  .x...P:.k.......
	0x0030:  0073 dff1 0000 0101 080a 0060 902b f5f2  .s.........`.+..
	0x0040:  2e32 504f 5354 202f 6367 692d 6269 6e2f  .2POST./cgi-bin/
	0x0050:  646f 5f6c 6f67 696e 2048 5454 502f 312e  do_login.HTTP/1.
	0x0060:  310d 0a41 6363 6570 742d 456e 636f 6469  1..Accept-Encodi
	0x0070:  6e67 3a20 6964 656e 7469 7479 0d0a 436f  ng:.identity..Co
	0x0080:  6e74 656e 742d 4c65 6e67 7468 3a20 3736  ntent-Length:.76
	0x0090:  0d0a 486f 7374 3a20 6e65 742e 7473 696e  ..Host:.net.tsin
	0x00a0:  6768 7561 2e65 6475 2e63 6e0d 0a43 6f6e  ghua.edu.cn..Con
	0x00b0:  7465 6e74 2d54 7970 653a 2061 7070 6c69  tent-Type:.appli
	0x00c0:  6361 7469 6f6e 2f78 2d77 7777 2d66 6f72  cation/x-www-for
	0x00d0:  6d2d 7572 6c65 6e63 6f64 6564 0d0a 436f  m-urlencoded..Co
	0x00e0:  6e6e 6563 7469 6f6e 3a20 636c 6f73 650d  nnection:.close.
	0x00f0:  0a55 7365 722d 4167 656e 743a 2050 7974  .User-Agent:.Pyt
	0x0100:  686f 6e2d 7572 6c6c 6962 2f32 2e37 0d0a  hon-urllib/2.7..
	0x0110:  0d0a 7573 6572 6e61 6d65 3d64 7066 3133  ..username=dpf13
	0x0120:  2664 726f 703d 3026 7061 7373 776f 7264  &drop=0&password
	0x0130:  3d32 6566 6264 3365 3233 3263 3963 6262  =2efbd3e232c9cbb
	0x0140:  3362 3661 3532 3765 3337 3738 3539 6264  3b6a527e377859bd
	0x0150:  6126 7479 7065 3d31 266e 3d31 3030       a&type=1&n=100
15:10:40.101787 IP 101.5.99.181.59283 > 166.111.8.120.http: Flags [.], ack 294, win 123, options [nop,nop,TS val 6328400 ecr 4126289494], length 0
	0x0000:  001a a916 15b1 6067 20ac 73f4 0800 4500  ......`g..s...E.
	0x0010:  0034 fbff 4000 4006 c722 6505 63b5 a66f  .4..@.@.."e.c..o
	0x0020:  0878 e793 0050 3ae3 6cf2 b6f8 14d4 8010  .x...P:.l.......
	0x0030:  007b ee20 0000 0101 080a 0060 9050 f5f2  .{.........`.P..
	0x0040:  2e56                                     .V
15:10:40.101897 IP 101.5.99.181.59283 > 166.111.8.120.http: Flags [.], ack 299, win 123, options [nop,nop,TS val 6328400 ecr 4126289494], length 0
	0x0000:  001a a916 15b1 6067 20ac 73f4 0800 4500  ......`g..s...E.
	0x0010:  0034 fc00 4000 4006 c721 6505 63b5 a66f  .4..@.@..!e.c..o
	0x0020:  0878 e793 0050 3ae3 6cf2 b6f8 14d9 8010  .x...P:.l.......
	0x0030:  007b ee1b 0000 0101 080a 0060 9050 f5f2  .{.........`.P..
	0x0040:  2e56                                     .V
15:10:40.102572 IP 101.5.99.181.59283 > 166.111.8.120.http: Flags [F.], seq 284, ack 300, win 123, options [nop,nop,TS val 6328401 ecr 4126289494], length 0
	0x0000:  001a a916 15b1 6067 20ac 73f4 0800 4500  ......`g..s...E.
	0x0010:  0034 fc01 4000 4006 c720 6505 63b5 a66f  .4..@.@...e.c..o
	0x0020:  0878 e793 0050 3ae3 6cf2 b6f8 14da 8011  .x...P:.l.......
	0x0030:  007b ee18 0000 0101 080a 0060 9051 f5f2  .{.........`.Q..
	0x0040:  2e56                                     .V
